:020000040000FA
:100000000C943E080C946F080C946F080C946F08C5
:100010000C946F080C946F080C946F080C946F0884
:100020000C946F080C946F080C946F080C946F0874
:100030000C946F080C946F080C946F080C946F0864
:100040000C946F080C946F080C946F080C946F0854
:100050000C946F080C946F080C946F080C949F4ECE
:100060000C946F080C94134F0C94E94E0C946F0889
:100070000C946F080C946F080C946F080C946F0824
:100080000C946F080C946F080C946F080C946F0814
:100090000C946F080C946F080C946F080C94494FE3
:1000A0000C946F080C946F080C946F080C946F08F4
:1000B0000C946F080C946F080C946F080C946F08E4
:1000C0000C946F080C946F080C946F080C946F08D4
:1000D0000C946F080C946F080C946F080C946F08C4
:1000E0000C946F0808000000BE922449123EABAA8F
:1000F000AA2ABECDCCCC4C3E00000080BEABAAAA42
:10010000AA3E00000000BF000000803F0000000089
:1001100000084178D3BB4387D1133D190E3CC3BDC2
:100120004282AD2B3E68EC8276BED98FE1A93E4C6F
:1001300080EFFFBE01C4FF7F3F00000000000763A7
:100140004236B79BD8A71A39685618AEBAAB558C49
:100150001D3CB7CC5763BD6DEDFD753EF617723192
:10016000BF000000803F05A84CCDB2D44EB9383650
:10017000A9020C50B9918688083CA6AAAA2ABE00FA
:100180000000803F0C94774E0C945E480C94CF098D
:100190000C9456230C94C3080C94CF470C948448B9
:1001A0000C9421480C94535C0C949B090C94AA4821
:1001B0000C94104E0C9411670C941F0A0C94A50813
:1001C0000C9490210C94235F0C94A6500C94C122A3
:1001D0000C944B480C941C490C9462220C94325F92
:1001E0000C94D0080C94F6470C94CB080C945A2E1F
:1001F0000C9435240C9426270C94BD480C949D2413
:100200000C94BD080C941D240C94524E0C9439236C
:100210000C9469280C94AF080C944F280C94304E21
:100220000C94B9080C94AC5A0C94E85B0C94725C76
:100230000C948B5B0C9469470C940B0A0C9424600F
:100240000C9471080C947C5F0C9496280C94561FA7
:100250000C949C090C94D9270C94EC4D0C94414EB1
:100260000C94214E0C94A95B0C940D240C949A5B75
:100270000C94FC090C94D35B0C94915F0C942D0AA4
:100280000C9496260C949E080C948E5A0C94C708D5
:100290000C94B20A0C9462280C94A84D0C949748C4
:1002A0000C94A2080C94B5080C94D44D0C94D50869
:1002B0000C94604D0C94FF4D0C9490080C94F448F1
:1002C0000C94644E0C9429240C94AC290C94D10801
:1002D0000C9471480C94CF480C94DF350C949A0818
:1002E0000C9438480C94DF260C94AB470C94960879
:1002F0000C94145F0C94844D0C94650A0C94FB5B75
:100300000C9440280C94AB086364696E6F7073752D
:1003100078585B00475241264146434800416D7082
:100320006C69747564653A004672657175656E63D3
:10033000792C205B487A5D3A00444453204144398B
:10034000393130000B0C0D0F101112131414151548
:10035000161616161615151414131211100F0D0C6F
:100360000B0A090706050403020201010000000050
:1003700000010102020304050607090A0B161616FE
:1003800015151414131211100F0D0C0B0A09070682
:100390000504030202010100000000000101020245
:1003A0000304050607090A0B0C0D0F101112131494
:1003B0001415151616546F6F204C6F6E6720546914
:1003C0006D6500000103070F1F3F7F0080C0E0F054
:1003D000F8FCFE00000000003E5B4F5B3E3E6B4FB2
:1003E0006B3E1C3E7C3E1C183C7E3C181C577D57C7
:1003F0001C1C5E7F5E1C00183C1800FFE7C3E7FF73
:100400000018241800FFE7DBE7FF30483A060E2605
:1004100029792926407F050507407F05253F5A3C5D
:10042000E73C5A7F3E1C1C08081C1C3E7F14227FA0
:1004300022145F5F005F5F06097F017F0066899578
:100440006A606060606094A2FFA29408047E040861
:1004500010207E201008082A1C08081C2A08081EE4
:10046000101010100C1E0C1E0C30383E3830060ECA
:100470003E0E06000000000000005F0000000700C4
:100480000700147F147F14242A7F2A122313086480
:100490006236495620500008070300001C22410024
:1004A0000041221C002A1C7F1C2A08083E08080064
:1004B0008070300008080808080000606000201004
:1004C0000804023E5149453E00427F4000724949BE
:1004D00049462141494D331814127F10274545459F
:1004E000393C4A49493141211109073649494936C0
:1004F000464949291E000014000000403400000055
:100500000814224114141414140041221408020186
:100510005909063E415D594E7C1211127C7F4949B2
:1005200049363E414141227F4141413E7F4949494F
:10053000417F090909013E414151737F0808087F45
:1005400000417F41002040413F017F081422417F4C
:10055000404040407F021C027F7F0408107F3E41E4
:1005600041413E7F090909063E4151215E7F09193B
:100570002946264949493203017F01033F40404053
:100580003F1F2040201F3F4038403F631408146342
:1005900003047804036159494D43007F41414102FE
:1005A00004081020004141417F0402010204404040
:1005B000404040000307080020545478407F2844FE
:1005C00044383844444428384444287F38545454E8
:1005D0001800087E090218A4A49C787F08040478F7
:1005E00000447D40002040403D007F102844000032
:1005F000417F40007C047804787C08040478384407
:10060000444438FC1824241818242418FC7C0804BA
:100610000408485454542404043F44243C404020DB
:100620007C1C2040201C3C4030403C442810284486
:100630004C9090907C4464544C4400083641000037
:1006400000770000004136080002010204023C2647
:1006500023263C1EA1A161123A4040207A3854540E
:100660005559215555794122545478422155547891
:100670004020545579400C1E527212395555555927
:10068000395454545939555454580000457C41004C
:1006900002457D420001457C407D1211127DF0280B
:1006A0002528F07C545545002054547C547C0A097C
:1006B0007F4932494949323A4444443A324A4848E7
:1006C000303A4141217A3A42402078009DA0A07DF5
:1006D0003D4242423D3D4040403D3C24FF242448B1
:1006E0007E4943662B2FFC2F2BFF0929F620C0885B
:1006F0007E090320545479410000447D413048482C
:100700004A32384040227A007A0A0A727D0D193145
:100710007D2629292F28262929292630484D4020A1
:10072000380808080808080808382F10C8ACBA2F7D
:10073000102834FA00007B000008142A1422221426
:100740002A14085500550055AA55AA55AAFF55FF69
:1007500055FF000000FF00101010FF00141414FFDC
:10076000001010FF00FF1010F010F0141414FC0023
:100770001414F700FF0000FF00FF1414F404FC142D
:100780001417101F10101F101F1414141F00101026
:1007900010F0000000001F101010101F101010109B
:1007A000F010000000FF101010101010101010FFBB
:1007B00010000000FF140000FF00FF00001F1017D2
:1007C0000000FC04F414141710171414F404F400BB
:1007D00000FF00F714141414141414F700F7141481
:1007E00014171410101F101F141414F4141010F008
:1007F00010F000001F101F0000001F14000000FC7C
:10080000140000F010F01010FF10FF141414FF1467
:100810001010101F00000000F010FFFFFFFFFFF09E
:10082000F0F0F0F0FFFFFF0000000000FFFF0F0FEF
:100830000F0F0F3844443844FC4A4A4A347E0202BF
:100840000606027E027E0263554941633844443CF9
:1008500004407E201E2006027E020299A5E7A5998B
:100860001C2A492A1C4C7201724C304A4D4D3030C2
:1008700048784830BC625A463D3E494949007E01AD
:1008800001017E2A2A2A2A2A44445F444440514ACC
:10089000444040444A51400000FF0103E080FF0013
:1008A0000008086B6B083612362436060F090F064F
:1008B000000018180000001010003040FF01010077
:1008C0001F01011E00191D1712003C3C3C3C00009A
:1008D000000000000020002300260029002C002F2B
:1008E00000320000010000030106010901DB40A401
:1008F000A62EAFDA0281DA1281DA02818F2000A1FE
:10090000C8D300408DAED580A80000600000000074
:1009100000000000000000000000E00000000000F7
:10092000000000000000000001E0000000000000E6
:100930000000000000000001F000000000000000C6
:1009400000000000000003F00000000000000000B4
:10095000000000000007F0000000000000000000A0
:100960000000000007F80000000000000000000088
:100970000000000FF800000003C0007E000001E04E
:10098000007F0FF800000003C000FE000001E0003F
:10099000FFEFF800000003C000FE000001E000FFD0
:1009A000FFF800000003C000F00000000F007FFE11
:1009B0007FC0000003C000F00000000F003FFE7F7A
:1009C000F83FF1FBCFFCFEF3BC3DEFE01FFE7FFFE5
:1009D0007FFBFFDFFEFEFFBC3DEFE01FC6FFFF7F9A
:1009E000FBFFDFFEFEFFBC3DEFE00FE3C7FE787BC1
:1009F000C3DE1EF0FFBC3DEF0007FF87FC787BC322
:100A0000DE1EF0F83C3DEF0001FFFFF0007BC3C0AD
:100A10001EF0F03C3DEF0001F37FE03FFBC3CFFE53
:100A2000F0F03C3DEF0003E33F807FFBC3DFFEF0CF
:100A3000F03C3DEF0007E73C00787BC3DE1EF0F0A2
:100A40003C3DEF0007FFBE00787BC3DE1EF0F03CAC
:100A50003DEF0007FFFE00787BC3DE1EF0F03C3D5B
:100A6000EF000FFFFE007FFBFFDFFEF0F03FFDEF2A
:100A7000E00FFFFF007FFBFFDFFEF0F03FFDEFE048
:100A80000FF9FF003E79F9CF9EF0F01F3DE7E01F20
:100A9000F1FF0000000000000000000000001F80C7
:100AA000FF007FFFFFFFFFFFFFFFFFFFE01C007F56
:100AB000007FFFFFFFFEB46D888D18E000001F006F
:100AC0007FFFFFFFFE95AD7DB577E000000F007F53
:100AD000FFFFFFFEA5AD9D8D19E0000006007FFF22
:100AE000FFFFFEB5ADEDB57EE00000000000018027
:100AF0000000000000000000000380000000000073
:100B00000000000007C00000000000000000000717
:100B1000C00000000000000000000FC00000000046
:100B200000000000001FE0000000000000000000C6
:100B30001FE00000000000000000003FE000000097
:100B40000000000000003FF0000000000000000076
:100B5000007FF0000000000000001FF87FF00000A0
:100B600000000000003FFE7FF000000000000000D9
:100B70003FFF7FF0000000000000001FFFFBE000CF
:100B80000000000000000FFFF9FFC000000000009F
:100B9000000FFFF9FFF800000000000007FFF1FF61
:100BA000FF00000000000003FC73FFFF8000000056
:100BB000000001FE3FFFFF80000000000000FF1E5C
:100BC0000FFF000000000000007FFE1FFC0000007F
:100BD000000000003FFFFFF8000000000000000FD1
:100BE000DFFFE0000000000000001F19FFC0000050
:100BF00000000000003F3CFF00000000000000007B
:100C00007E7CF800000000000000007FFE7C0000F9
:100C1000000000000000FFFFFC00000000000000DA
:100C200000FFFFFE0000000000000000FFFFFE00CC
:100C300000000000000001FFEFFE000000000000C7
:100C40000001FFCFFE0000000000000003FF07FED0
:100C50000000000000000003FC07FE000000000090
:100C6000000003F003FE000000000000000180000F
:100C7000FE000000000000000000007E00000000F8
:100C80000000000000003E00000000000000000026
:100C9000000C000000000000078000FC000003C002
:100CA000000000078001FC000003C0000000078076
:100CB00001FC000003C0000000078001E00000000C
:100CC0001E000000078001E00000001E007FE3F727
:100CD0009FF9FDE7787BDFC0FFF7FFBFFDFDFF78E1
:100CE0007BDFC0FFF7FFBFFDFDFF787BDFC0F0F7C4
:100CF00087BC3DE1FF787BDE00F0F787BC3DE1F08B
:100D0000787BDE0000F787803DE1E0787BDE007FC6
:100D1000F7879FFDE1E0787BDE00FFF787BFFDE10D
:100D2000E0787BDE00F0F787BC3DE1E0787BDE0019
:100D3000F0F787BC3DE1E0787BDE00F0F787BC3D53
:100D4000E1E0787BDE00FFF7FFBFFDE1E07FFBDF46
:100D5000C0FFF7FFBFFDE1E07FFBDFC07CF3F39F47
:100D60003DE1E03E7BCFC00000000000000000003D
:100D70000000FFFFFFFFFFFFFFFFFFFFC0FFFFFFC0
:100D8000FFFD68DB111A31C0FFFFFFFFFD2B5AFB8F
:100D90006AEFC0FFFFFFFFFD4B5B3B1A33C0FFFF55
:100DA000FFFFFD6B5BDB6AFDC04669726D776172A8
:100DB0006520762E3A00444453204144393931307D
:100DC0002041726475696E6F20536869656C642098
:100DD000627920475241202620414643482E202850
:100DE0006772612D616663682E636F6D2900556EB1
:100DF0006B6E6F776E20636F6D6D616E643A004647
:100E0000202D20536574204672657175656E637977
:100E100020696E20487A202831303030303020E28E
:100E2000809420363030303030303030290A502035
:100E30002D20536574204F757470757420506F7732
:100E4000657220696E2064426D20282D373220E2C1
:100E500080942030204F52202D363820E28094207C
:100E60002B342C20646570656E64696E67206F6E2C
:100E700020224441432063757272656E7422290AF0
:100E80004D202D20476574204D6F64656C0A5620F7
:100E90002D20476574204669726D77617265205612
:100EA000657273696F6E0A68202D2054686973201B
:100EB00048656C700A3B202D20436F6D6D616E6438
:100EC0007320536570617261746F720A4578616D49
:100ED000706C653A0A463130303030303B502D323C
:100EE0000A536574204672657175656E6379207466
:100EF0006F20313030206B487A2C20616E64204F97
:100F0000757470757420506F77657220746F202D22
:100F1000322064426D2E0A416E79206E756D6265D5
:100F200072206F6620636F6D6D616E647320696EF1
:100F300020616E79206F7264657220697320616C24
:100F40006C6F7765642E0044445339393130207614
:100F5000322E300053657420506F7765722E3A2020
:100F60000053657420667265712E3A2000000021DE
:100F700000240027002A002D00300033000101006A
:100F800000040107010A0100002200250028002BAF
:100F9000002E003100340002010000050108010BA1
:100FA0000105050505070508080808020202020AEE
:100FB0000A080804040404010101010101010103FC
:100FC00003030303030303040707070C0C0C0C0CB7
:100FD0000C0C0C0202020206060606060606060BAA
:100FE0000B0B0B0B0B0B0B01021020200808102021
:100FF00040102040800201020108040201010204A5
:101000000810204080804020100804020180040263
:1010100001804020100804020108040201010204BA
:101020000810204080010204081020408000000ABF
:101030000B02090C0D0E080703040100000000005C
:1010400000000000000000000000000000000000A0
:10105000000000000000000000121110000000005D
:101060000000000000000000000000000000000080
:101070000000002200FF2100A650246011241FBEA2
:10108000CFEFD1E2DEBFCDBF00E00CBF29E0A0EA88
:10109000B6E001C01D92A137B207E1F716E0A0E06B
:1010A000B2E0EAEEF0EE00E00BBF02C007900D9256
:1010B000A03AB107D9F718E0CDE3D8E000E006C0C8
:1010C00021970109802FFE010E946966CC33D10768
:1010D00080E00807A9F70E9490510C9463700C946B
:1010E000000008958150823108F05AC0E82FF0E0E6
:1010F0008827E258F74F8F4F0C9469669E08A20824
:10110000900896089A08D008A508AB08AF08B5085B
:10111000B908BD08C308C708D008CB08D108D5084E
:10112000809180008F778093800008958091800067
:101130008F7DF9CF80918000877FF5CF84B58F7741
:1011400084BD089584B58F7DFBCF8091B0008F77EB
:101150008093B00008958091B0008F7DF9CF809189
:1011600090008F77809390000895809190008F7DFC
:10117000F9CF80919000877FF5CF8091A0008F7785
:101180008093A00008958091A0008F7DF9CF809179
:10119000A000877FF5CF809120018F778093200179
:1011A0000895809120018F7DF9CF80912001877F64
:1011B000F5CF1F93CF93DF93282F30E0F901E35D44
:1011C000FF4E8491F901E951F04FD491F901EF55A7
:1011D000F04FC491CC23A9F0162F81110E94720800
:1011E000EC2FF0E0EE0FFF1FE957F04FA591B491FF
:1011F0008FB7F894EC91111108C0D095DE23DC93E1
:101200008FBFDF91CF911F910895DE2BF8CFCF9341
:10121000DF9390E0FC01E951F04F24918F55904FFE
:10122000FC0184918823D1F090E0880F991FFC0184
:10123000E359F04FA591B491FC01E957F04FC591E6
:10124000D49161110EC09FB7F8948C91E22FE09574
:101250008E238C932881E223E8839FBFDF91CF9177
:1012600008958FB7F894EC91E22BEC938FBFF6CFF3
:101270003FB7F8948091D1079091D207A091D307FE
:10128000B091D40726B5A89B05C02F3F19F0019651
:10129000A11DB11D3FBFBA2FA92F982F8827BC01D0
:1012A000CD01620F711D811D911D42E0660F771FF8
:1012B000881F991F4A95D1F708958F929F92AF92F8
:1012C000BF92CF92DF92EF92FF924B015C010E949E
:1012D00038096B017C010E9438096C197D098E095F
:1012E0009F09683E734081059105A8F321E0821AA9
:1012F0009108A108B10888EEC80E83E0D81EE11C51
:10130000F11C81149104A104B10429F7FF90EF901E
:10131000DF90CF90BF90AF909F908F9008952FB7A0
:10132000F8946091CD077091CE078091CF0790918E
:10133000D0072FBF089508950895DB0114964D91AD
:101340005C9115976D917C91DC01ED91FC9102808F
:10135000F381E02D1994EF92FF920F931F93CF9397
:10136000DF938C017B01D0E0C0E0F701EC0FFD1FA3
:101370006491662361F0D801ED91FC910190F081B8
:10138000E02DC8011995892B11F02196EECFCE01E1
:10139000DF91CF911F910F91FF90EF900895AF9241
:1013A000BF92CF92DF92EF92FF920F931F93CF9352
:1013B000DF936C017B018B01040F151FEB015E01B4
:1013C000AE18BF08C017D10759F06991D601ED9149
:1013D000FC910190F081E02DC6011995892B79F7D8
:1013E000C501DF91CF911F910F91FF90EF90DF909A
:1013F000CF90BF90AF900895FC01538D448D252F61
:1014000030E0842F90E0821B930B541710F0CF969E
:10141000089501970895FC01918D828D981761F0D0
:10142000A28DAE0FBF2FB11D5D968C91928D9F5FE7
:101430009F73928F90E008958FEF9FEF0895FC01C6
:10144000918D828D981731F0828DE80FF11D858D79
:1014500090E008958FEF9FEF0895FC01918D228D0C
:10146000892F90E0805C9F4F821B91098F73992791
:1014700008958AED97E00E942D0A21E0892B09F456
:1014800020E0822F0895FC01A48DA80FB92FB11D73
:10149000A35ABF4F2C91848D90E001968F739927AA
:1014A000848FA689B7892C93A089B1898C91837088
:1014B00080648C93938D848D981306C00288F38981
:1014C000E02D80818F7D80830895EF92FF920F93AE
:1014D0001F93CF93DF93EC0181E0888F9B8D8C8DE0
:1014E00098131AC0E889F989808185FF15C09FB7D4
:1014F000F894EE89FF896083E889F9898081837097
:10150000806480839FBF81E090E0DF91CF911F9145
:101510000F91FF90EF900895F62E0B8D10E00F5F66
:101520001F4F0F731127E02E8C8D8E110CC00FB63C
:1015300007FCFACFE889F989808185FFF5CFCE01D4
:101540000E94430AF1CFEB8DEC0FFD2FF11DE35A02
:10155000FF4FF0829FB7F8940B8FEA89FB89808157
:101560008062CFCFCF93DF93EC01888D8823B9F0D1
:10157000AA89BB89E889F9898C9185FD03C080819E
:1015800086FD0DC00FB607FCF7CF8C9185FFF2CF1B
:10159000808185FFEDCFCE010E94430AE9CFDF9124
:1015A000CF91089580E090E0892B29F00E94390ABC
:1015B00081110E94000080E090E0892B49F080E0DA
:1015C00090E0892B29F00E94000081110E94000008
:1015D00080E090E0892B49F080E090E0892B29F0B1
:1015E0000E94000081110E94000080E090E0892BA1
:1015F00049F080E090E0892B29F00E9400008111E1
:101600000C94000008952F923F924F925F926F9238
:101610007F928F929F92AF92BF92CF92DF92EF9282
:10162000FF920F931F93CF93DF936115710581058F
:10163000910509F492C09B01AC01222757FD239527
:101640003327442755276B017C01F7FE08C0F0942F
:10165000E094D094C094C11CD11CE11CF11CD601B3
:101660009927882700E10097A105F1E0BF0728F43A
:10167000BC2DAA279927882708E18B2F9927AA270D
:10168000BB278E599D4F0B5EFC019080900E30E081
:1016900040E050E060E070E080E090E00FE30E9406
:1016A000DA67122F232E342E452E562E672E782ED3
:1016B000892E9601A70160E070E080E090E0092D9E
:1016C0000E94DA6759016A017B01082FE92F212F57
:1016D000322D432D542D652D762D872D982D1E2FBF
:1016E0000E941068722E832ED42FC52FB62FA72FDD
:1016F000F82FE92F42E354E04919510997FC53951B
:10170000952F990F990B9A01492F592F692F792FEE
:10171000892F04E30E94DA6759016A017B018C0179
:10172000272D382D4D2F5C2F6B2F7A2F8F2F9E2F2B
:101730000E941068DF91CF911F910F91FF90EF9061
:10174000DF90CF90BF90AF909F908F907F906F90E1
:101750005F904F903F902F90089520E030E040E060
:1017600050E060E070E080E090E0E4CF9091D50739
:10177000892B8093D50708955F926F927F928F9205
:101780009F92AF92BF92CF92DF92EF92FF920F9310
:101790001F93CF93DF93722E132FD42FC52FB62F05
:1017A000F72FA82FE92F602E0FE30E94F567522E26
:1017B000272D312F4D2F5C2F6B2F7F2F8A2F9E2FA0
:1017C00004E30E94F567490187E09822E72D312F55
:1017D0004D2F5C2F6B2F7F2FAF70DA2EA0E081147E
:1017E000910411F06894D4F88CE294E07C01E8183C
:1017F000F9081E141F045CF58FE3E816F1040CF0E1
:1018000070C0AA24BB24AE18BF088FE3A822BB2453
:10181000272D312F4D2F5C2F6B2F7F2F8D2D90E09B
:101820000A2D0E94DA67E1E0A0E00E94376809F41F
:10183000E0E0272D312F4D2F5C2F6B2F7F2F8D2D2B
:1018400090E00E2D0E94F567E22BD82EA92F2E2FA7
:101850008D2D9A2FA0E40E941968D22EE32EF42E2B
:10186000152FD62FC72FB82FF92F607820E030E042
:1018700040E050E07C2F8B2F9F2FA0E00E94376824
:1018800009F045C02D2D3E2D4F2D512F6D2F07E016
:101890000E94F567B32FA42FF52F622F7B2F8A2F7D
:1018A0009F2F552029F0611571058105910579F566
:1018B000662039F0EF7729F02091D5072160209339
:1018C000D507DF91CF911F910F91FF90EF90DF909F
:1018D000CF90BF90AF909F908F907F906F905F90D0
:1018E0000895E1E0272D312F4D2F5C2F6B2F7F2F97
:1018F0008D2D90E0A0E00E94376809F4E0E030E030
:1019000040E050E060E070E0D12CA0E0A0CF80E1AA
:101910000E94B60B6FEF7FEFCB01D3CF2F923F9298
:101920004F925F926F927F928F929F92AF92BF92EF
:10193000CF92DF92EF92FF920F931F93CF93DF939B
:10194000CDB7DEB76D970FB6F894DEBF0FBECDBF33
:1019500049015A013B01582E492E0F8B0FE30E947B
:10196000F567122F9401A501B301852D942D04E391
:101970000E94F5672D873E874F87588B698B7A8B3E
:101980008B8B9C8BCD84DE8427E0D222052D0F70BB
:10199000C114D10409F00061E3E3F4E0EC19FD099E
:1019A00019861A861B861C861E161F060CF4EAC0B2
:1019B000E53F3FEFF3070CF048C080E10E94B60B13
:1019C0009401A501B301852D942DA0E00E943768F4
:1019D0000CF0CAC08FEFC81687E0D80661F4802FDC
:1019E00090E02115310541055105610571058041E2
:1019F000910509F0B9C0D12CF12CA12CB0E0F0E098
:101A0000E0E0B12C40E8C42E2D2D3F2D4A2D5B2F58
:101A10006F2F7E2F8B2D9C2D6D960FB6F894DEBF09
:101A20000FBECDBFDF91CF911F910F91FF90EF902F
:101A3000DF90CF90BF90AF909F908F907F906F90EE
:101A40005F904F903F902F900895F195E195F109A7
:101A50009401A501B301802F90E00E2F0E94DA6758
:101A6000B22FA32FF42FE52F00E20E94F567298300
:101A70003A834B835C839D01CF013D832E839F83FB
:101A8000888782E090E0111102C083E090E04985F0
:101A90005A856B857C85FF88F816190629F4A1E024
:101AA000452B462B472B09F4A0E089809A80AB8018
:101AB000BC809401A50160E070E080E090E000E26D
:101AC0000E94DA674D805E806F807884D22ED428A1
:101AD000F32EF528042F0629B52FB729F62FE72F67
:101AE000B82EC92EAA2399F02D2D3F2D402F5B2F04
:101AF000A1E00E941968D22EF32E042FB52FF62FE5
:101B0000E72FB82EC92EA0E00E94376841F11123BB
:101B100091F02D2D3F2D402F5B2F6F2F7E2F8B2D82
:101B20009C2D0E949367D22EF32E042FB52FF62FF3
:101B3000E72FB82EC92EA02E2D2D3F2D402F5B2F25
:101B40006F2F7E2F8B2D9C2DA0E00E94376809F40B
:101B50005BCF0FE30E94F567121709F455CF80E1C0
:101B60000E94B60B111147CFDD24DA94FF24FA94BA
:101B7000AA24AA94BFEFFFEFEFEFBB24BA948FE73C
:101B8000C82E42CF9401A501B301802F90E000E25E
:101B90000E94F56729833A834B835C838D829E8202
:101BA000AF82B8862F01FF0F6608770835E076947C
:101BB0006794579447943A95D1F7411451046104BE
:101BC000710409F4B9C0B301A201B4E04B16510489
:101BD0006104710420F043E050E060E070E0842F85
:101BE000A3E0B0E0A41BB50BAA0FBB1FAA0FBB1F3D
:101BF000EE24E394F12CEC0EFD1EAE0DBF1D8D9076
:101C00009D90AD90BD9081149104A104B10411F494
:101C10008150A9F723E0421651046104710408F0D1
:101C2000D7C0EF7183E0841BEE2309F4B2C06A01D0
:101C3000CC0CDD1CCC0CDD1CA1E0B0E0AC0FBD1F5A
:101C4000AC0DBD1DBE87AD870E2F0195282F30E04E
:101C5000D9011197AA0FBB1FAA0FBB1FEE24E39453
:101C6000F12CEC0EFD1EAE0DBF1D8D919D910D90C2
:101C7000BC91A02DEE2EF12CFE8AED8A2C013D01A7
:101C80000E2E04C076946794579447940A94D2F722
:101C90007301620104C0CC0CDD1CEE1CFF1CEA9534
:101CA000D2F78C159D05AE05BF0511F0689440F87C
:101CB0003D8F2C8F1901220C331C220C331C30E079
:101CC00020E00F718C8D9D8D01979D8F8C8F2450FE
:101CD0003109892BC1F1F101E20FF31FDF011497E4
:101CE000EE24E394F12CEC0EFD1EAE0DBF1DCD9045
:101CF000DD90ED90FC908D859E85E80FF91FD70152
:101D0000C601002E04C0880F991FAA1FBB1F0A948A
:101D1000D2F7482A592A6A2A7B2A40825182628253
:101D20007382260137010D8804C076946794579416
:101D300047940A94D2F7C6CF812C912C540140E0ED
:101D400050E0BA016ECFAD85BE854D925D926D9229
:101D50007C921397411551056105710559F0FE01FB
:101D600031961192119211921192415051096109CB
:101D70007109B9F789288A288B2809F482CE8985C8
:101D80009A85AB85BC85816089879A87AB87BC873C
:101D900078CEE2E0F0E4E41BF50BEE0FFF1FEE0F50
:101DA000FF1F3496EE24E394F12CEC0EFD1EEE0D95
:101DB000FF1DDE01199672906290529042904D92F2
:101DC0005D926D927C92139714978150A1F7C7CFC3
:101DD00043E050E060E070E0C2CF2F923F924F921C
:101DE0005F926F927F928F929F92AF92BF92CF92AB
:101DF000DF92EF92FF920F931F93CF93DF9300D068
:101E000000D0CDB7DEB7382EFB01270138014901DC
:101E10005A01A70153705D834C836D3F57E07507EE
:101E200008F4AAC077FF6BC06F3F760709F04EC079
:101E30009701A801B401C5013E5F4F4F5F4F6F4F3F
:101E40007F4F8F4F9F4F20953095409550956095CF
:101E50007095809590950FE30E94F567B22F9201DF
:101E6000A301B401C5018F010F7311270E94DA6726
:101E7000A1E0A983A0E00E94376809F41982002735
:101E800011270E1B1F0B9201A301B401C5010E9473
:101E9000F5674980422A532E3A014B015C01A201A9
:101EA00053705D834C83BB2309F464C0F0E0E0E031
:101EB000452B09F466C082E00E94B60BF0E0E0E03A
:101EC0008091D50781608093D5075BC0623C7F4FCE
:101ED00014F0B1E0C4CFE1E09701A801B401C5015D
:101EE000A0E00E94376809F4E0E04E2E512C612CEE
:101EF000712C812C912CA12CB12CB1E0D0CF6D3F55
:101F0000774079F49701A801B401C5013E5F4F4FB6
:101F10005F4F6F4F7F4F8F4F9F4FA0E00E943768FA
:101F20005CF585E00E94B60B232D30E040E050E0E8
:101F300060E070E080E090E00FE30E94DA6780519B
:101F4000904826960FB6F894DEBF0FBECDBFDF9146
:101F5000CF911F910F91FF90EF90DF90CF90BF90A6
:101F6000AF909F908F907F906F905F904F903F9039
:101F70002F900895F0E0E0E08C819D81892B09F09D
:101F80009FCF9201A301B401C5013E5F4F4F5F4F48
:101F90006F4F7F4F8F4F9F4F0AE00E94F567B32E20
:101FA0006A017B01B82F192F81E04C815D814115B9
:101FB000524009F080E0A82EA094A222232D30E008
:101FC00040E050E060E070E080E090E00FE30E94CD
:101FD000DA6729013A01862E79838A839B839501EA
:101FE000A601B7018B2F912FA0E00E94376841F125
:101FF0009F2F990F990B9F01492F592F692F792FE7
:10200000892F04E30E94DA67F22FE32FA42F352EE5
:10201000262E972E8E839C839201A301682D7981B1
:102020008A819B810B2F0E941068AF2EBE2ECA2E74
:10203000D32CE22CF92C0E811C810E94106881CFD8
:10204000FA2DEB2DAC2D3D2C2E2C9F2CBE831C830A
:10205000E3CF2F923F924F925F926F927F928F9237
:102060009F92AF92BF92CF92DF92EF92FF920F9327
:102070001F93CF93DF93CDB7DEB761970FB6F89478
:10208000DEBF0FBECDBF522E632E742E852E962E30
:10209000798B99833A2CB886C986DA86EB86FC86DA
:1020A0001D879F779E87F12C912F9F779F8710E048
:1020B000482E689443F8AA82BB82CC82DD82EE82ED
:1020C0008C858F830860088B2D84F11002C011234A
:1020D00089F080E10E94B60BFF20E9F111110AC0DE
:1020E0005A826B827C828D829E8299899F83488AE4
:1020F000298031C0252D362D472D582D692D798900
:10210000842D9E85A32CB884C984DA84EB84FC8456
:1021100008891F850E942E68F0F00E942E6809F041
:10212000D8F5232D3B2DA601B701802F9D85A52C29
:10213000B62CC72CD82CE92CF988042D19810E94C3
:102140002E6849F040F05A826B827C828D829E829A
:10215000FF82488A212E2A813B814C815D816E81DC
:102160007F818889922D61960FB6F894DEBF0FBEED
:10217000CDBFDF91CF911F910F91FF90EF90DF9036
:10218000CF90BF90AF909F908F907F906F905F9017
:102190004F903F902F9008955A826B827C828D825F
:1021A0009E8289898F83A3CFAF92BF92CF92DF9215
:1021B000EF92FF920F931F93CF93DF93FC01F02ECA
:1021C000D22FC32FB42EC52ED62EE72E202F312F7F
:1021D0004D2F5C2F6B2D7C2D8D2D9E2D00E20E94AE
:1021E000F567A22E032F8A2D902FA42FB52F00E084
:1021F0000097A105B10531F49E018F2D912FA32FDA
:10220000B22F00E2009721E0A207B10520F4005FA1
:10221000DC01992788270097A10521E0B20728F45F
:10222000085FBA2FA92F982F88278B2F9927AA27C5
:10223000BB278E599D4F0B50DC018C91080F81E01C
:1022400090E0801B910907FD9395918380832F2D4A
:10225000312F4D2F5C2F6B2D7C2D8D2D9E2D0E94AF
:10226000DA67228333834483558366837783808749
:102270009187CF01DF91CF911F910F91FF90EF9048
:10228000DF90CF90BF90AF9008952F923F924F92E2
:102290005F926F927F928F929F92AF92BF92CF92F6
:1022A000DF92EF92FF920F931F93CF93DF93CDB7FF
:1022B000DEB7E6970FB6F894DEBF0FBECDBF722E25
:1022C000832E942EB52FF62FE72F88A39E8B0D8B90
:1022D00004E30E94F5672B873C874B845C8407E00E
:1022E00050227F8A888E998EBA8FFB8BEC8B88A1C7
:1022F0008F70682E1B8E9501A601B7018D89912FD5
:1023000004E30E94F5672B873C874D875E876F87C4
:10231000788B898B9A8B2B843C8497E03922AC8E06
:10232000BD8ECE8EDF8EEAA2FBA20D890F700B87C9
:102330001CA2272D382D492D5B2F6F2F7E2F88A1B2
:102340009E890FE30E94F567A22F9501A601B701B0
:102350008D89912F0E94F567A227A9A78FEF4816B4
:1023600087E05806E9F5272D382D492D5B2F6F2F73
:102370007E2F862D90E0A0E00E94376809F02BC2E6
:102380009FEF291697E0390649F49501A601B70198
:102390008B8590E00E94376809F01DC2932D990F3C
:1023A000990B2A2D22293B2D3329492F4C29592FAE
:1023B0005D29692F6E29792F7F298B85892BA0E0D4
:1023C0000E94376809F013C280E10E94B60B20E03A
:1023D00030E040E050E060E070E088EF9FEFD3C174
:1023E0000FEF201607E03006E1F49501A601B701D2
:1023F0008B8590E0A0E00E94376809F0ECC1952D34
:10240000990F990B272D2429382D3529492F492932
:10241000592F5B2B692F6F2B792F7E2B892F8629C4
:10242000CECF4114510439F52F89388D498D5A8DFD
:102430006B897C89862D90E0A0E00E94376809F4C2
:10244000E4C189019A01AB01662D70E0CE010196CD
:102450000E94D41049805A808B818F8B9C81988FE9
:10246000ED81E98F0E810A8F8F818B8B98859C8BF4
:102470006984EA85EB8F2114310429F59501A601C1
:10248000B7018B8590E0A0E00E94376809F4BDC1D8
:1024900085019601A701682F70E0CE0101960E9488
:1024A000D41029803A800B810C8F8C818D8F9D8177
:1024B0009E8FEE81EF8F0F810AA388858BA399856C
:1024C0009B87EA85ECA3C201820D931D99A388A383
:1024D0002F89388D498D5A8D6B897C89862D9B8DEE
:1024E0000AE00E94DA6739014A01B62FA72FF82FB8
:1024F000E92F2C8D3D8D4E8D5F8D6AA17BA18B8543
:102500009CA10BE00E94DA6719012A01D62EE72E62
:10251000F82E192F9301A4016B2F7A2F8F2F9E2F46
:1025200000E20E94F5672D8B3E8B4B8F6C8F7D8F69
:102530008E8F9F8F50645B8B9101A2016D2D7E2D3C
:102540008F2D912F0E94F5672AA33BA34CA36DA367
:102550007EA38FA398A750685C8B51016201E12C88
:10256000F12C00E010E09301A40160E070E080E055
:1025700090E00E9480662EA73FA748AB59AB6AAB9C
:102580007BAB8CAB9DAB2D893E894B8D5B896C8D74
:102590007D8D8E8D9F8D0E94806619012A016AA70C
:1025A0007BA78CA79DA7AAA0BBA0CCA0DC88EDA090
:1025B000FEA00FA118A59301A40160E070E080E0E7
:1025C00090E00E94806651016201EAA4FBA40CA580
:1025D0001DA50E9410682B873F8B488F598F6A8FEB
:1025E000672E782E892EAAA0BBA0CCA0DC88EDA0F7
:1025F000FEA00FA118A52D893E894B8D5B896C8D9E
:102600007D8D8E8D9F8D0E9480662AA33BA34CA357
:102610005DA36EA37FA388A79EAB9101A2016AA5CB
:102620007BA58CA59DA5AB84BF88C88CD98CEA8C72
:10263000F62C072D182D0E942E6809F008F4BCC056
:10264000E1E0EB8B2B853F89488D598D6A8D762D86
:10265000872D982D00E20E94DA6719012A016C8B00
:102660007D8B8E8B9B8F2EA53FA548A959A96AA962
:102670007BA98CA99DA951016201EC88FD880E8976
:102680001B8D0E941068922EA32FF42FE52F6C8FC4
:102690007D8F8E8F9F8FB1E09101A201B701C8019C
:1026A000A92CBA2ECF2EDE2EEC8CFD8C0E8D1F8D1C
:1026B0000E942E6809F008F4B0E02B2F30E040E0D3
:1026C00050E060E070E080E090E0AAA0BBA0CCA069
:1026D000DDA0EEA0FFA008A51EA90E941068590168
:1026E0006A017B01B82F192F2B853F89488D598DA1
:1026F0006A8D762D872D982D00E20E94F5670B8953
:10270000602B0B2F0E9410687901C42E152FD62E36
:10271000B72F5C01292D3A2F4F2F5E2F6C8D7D8DA9
:102720008E8D9F8D00E20E94F56729013A014528B0
:102730004628472841F4492D5A2F6F2F7E2F452BCD
:10274000462B472B11F06894E0F897014C2D512F40
:102750006D2D7B2FC5012F3FEFEF3E074E075E0724
:102760006E077E078E07EFE39E0741F138F1E8A17F
:10277000F9A1EF5FF3400C2D2D2D3B2FA501BF01DB
:1027800089A50E94ED0EE6960FB6F894DEBF0FBE47
:10279000CDBFDF91CF911F910F91FF90EF90DF9010
:1027A000CF90BF90AF909F908F907F906F905F90F1
:1027B0004F903F902F9008951B8A44CFE8A1F9A134
:1027C000F45001E00E94DA677901C42E152FD62E4D
:1027D000B72F5C01D0CF0D89272D382D492D5B2FC8
:1027E0006F2F7E2F88A19E890E942910CCCF29A50A
:1027F00030E040E050E060E070E080E090E00FE327
:102800000E94DA6780519048BECF29A530E040E0B1
:1028100050E060E070E080E090E00FE30E94DA6753
:10282000B2CF2F923F924F925F926F927F928F9290
:102830009F92AF92BF92CF92DF92EF92FF920F934F
:102840001F93CF93DF93CDB7DEB7E9970FB6F89418
:10285000DEBF0FBECDBF29013A014B01FC01B02FF5
:1028600004E30E94F5672B873C872B843C8407E0B8
:1028700030224EA25FA268A679A68AA69BA62E2F1A
:102880002F702B8B1CA69501A601B7018B2F912FC2
:1028900004E30E94F5672B873C874B855C85577066
:1028A0005C874B87ADA6BBA2CCA2DDA2EEA6FFA69D
:1028B0005B2F5F705B8F1CAA9201A301B401CF0153
:1028C0000FE30E94F567A22F9501A601B7018B2F98
:1028D000912F0E94F567A227ADAB6FEF261667E038
:1028E000360631F59201A301B4018B8990E0A0E096
:1028F0000E94376809F012C38B859C858F3F9740F3
:1029000009F057C09501A601B7018B8D90E0A0E0BA
:102910000E94376809F002C380E10E94B60B20E0F4
:1029200030E040E050E060E070E088EF9FEFC8C228
:102930002B853C852F3F3740B1F49501A601B701A7
:102940008B8D90E0A0E00E94376809F0E7C22DA9C6
:1029500030E040E050E060E070E080E090E00FE3C5
:102960000E94DA67ADC26B857C85672B09F04FC08A
:102970009501A601B7018B8D90E0A0E00E94376819
:1029800031F5932D990F990B242D2229352D3329BB
:10299000492F4629592F5729692F6829792F7929D5
:1029A0008B89892B0E94376809F4B6CF88E00E9492
:1029B000B60B2DA930E040E050E060E070E080E030
:1029C00090E00FE30E94DA678051904879C20DA52C
:1029D0001BA12CA13DA14EA55FA56B8D70E0CE0182
:1029E00001960E94D410A980BA80BC86AB86BB80B9
:1029F000BDA6CC80CBA2DD80DCA2EE80EDA2FF8064
:102A0000FEA608850FA7A984AB8EBA84BCAA2114A0
:102A1000310429F59201A301B4018B8990E0A0E073
:102A20000E94376809F493CF82019301A401682FB3
:102A300070E0CE0101960E94D41029803A80CB80AC
:102A4000CEA2DC80DFA2ED80E8A6FE80F9A60F8191
:102A50000AA718851BA7A984AB8ABA84BCA6D10192
:102A6000CB84DC84AC19BD09EB89E061FB8DF0619E
:102A70002EA13FA148A559A56AA57BA58E2F9CA58F
:102A8000ADA4BBA0CCA0DDA0EEA4FFA40F2F1CA979
:102A90000E942E6808F02DC28D0103501C4F1FAB01
:102AA0000EAB0BE00E94DA67922E832E742E652EF9
:102AB00068AB79AB8AAB9BAB2DA53BA14CA15DA1CB
:102AC0006EA57FA58F2F9CA90BE00E94DA672B874C
:102AD0003C874D875E876F87788B898B9A8B00E266
:102AE0000E94F5672EA33FA348A759A76AA77BA713
:102AF0008CA79DA7C901DA01A901BD012BE176953B
:102B00006795579547952A95D1F74F705527BA0184
:102B1000660F771FFB01EE5BFD4F4BE0B695A79567
:102B2000979587954A95D1F79C01AD014427552784
:102B3000DB01AE5DBD4F0D90BC91A02D0E944362A4
:102B400054E196958795779567955A95D1F72080AA
:102B50003180261A370AAEA0BFA0C8A4D9A4EAA41F
:102B6000FBA40CA51DA5910140E050E060E070E0E1
:102B700080E090E00E94806607E00E94F5677A019D
:102B80006901C094D094E094F094512C412CC2017E
:102B9000B101A70196010E94D86608E10E94F5677D
:102BA0002B8B3C8B4D8B5E8B2101332422244B8954
:102BB0005C896D897E89240E351E461E571EC7010D
:102BC000B601A70196010E94D86600E20E94F5674F
:102BD00062015101E12CF12C87012B8ABC8A4D8ABC
:102BE000DE8AEF8AF88E098F1A8FE12CF12C00E033
:102BF00010E00E94806600E30E94F56759016A01B7
:102C000022E0221A3108410851082A0C3B1C4C1CB6
:102C10005D1CB201A10180E090E0DC012B8A5C8B9D
:102C20004D8A7E8B8F8B988FA98FBA8F292D382D47
:102C3000472D562D68A979A98AA99BA900E20E946F
:102C4000F567AB88BC88CD88DE88E12CF12C00E0EC
:102C500010E00E9480666BA37CA38DA399AF00E275
:102C60000E94F56719012A01220C331C441C551CD3
:102C70006B857C858D859E85E4E096958795779517
:102C80006795EA95D1F76B877C878D879E87620170
:102C90005101E12CF12C87012B8EBC8E4D8EDE8EE6
:102CA000EF8EF8A209A31AA3AEA0BFA0C8A4D9A40E
:102CB000EAA4FBA40CA51DA52B8D3C8D4D8D5E8D2E
:102CC00060E070E080E090E00E94806659016A0157
:102CD0007B018C01292D382D472D562D68A979A906
:102CE0008AA99BA90E9425680CE10E94DA677901F4
:102CF0008A013B014C01C201B1012B853C854D8508
:102D00005E850E94D86659016A01B62FA72FF82F59
:102D1000E92F9701A801B301C401EB2EFA2E0F2F62
:102D20001E2F0E9425682EA73FA748AB59AB6AAB60
:102D30007BAB8CAB98AF00E20E94F567AB88BC8898
:102D4000CD88DE88E12CF12C00E010E00E94806646
:102D500000E20E94F56729013A0104E0400E511C8F
:102D6000611C711C9201A30160E070E080E090E0C2
:102D700004E00E94DA6759016A017B018C0120E0BE
:102D800030E040E050E06BA17CA18DA199AD0E94A4
:102D90001068922E832E4B8F5BA36CA37DA31C0126
:102DA0003170292D40E050E060E070E080E090E07C
:102DB000AFE30E94376811F008F076C0192D107843
:102DC000912E440C551C661C771C20EF4222B30147
:102DD000A20180E090E0DC014B8A5C8B6D8A7E8BE7
:102DE0008F8B988FA98FBA8FAEA0BFA0C8A4D9A48B
:102DF000EAA4FBA40CA51DA59201A30160E070E06C
:102E000080E090E00E94806659016A017B018C019C
:102E10002EA53FA548A959A96AA97BA98CA998AD57
:102E20000E9425680CE10E94DA672B8BA32EB42E3A
:102E3000C52ED62EE72EF82E192F6B857C858D8515
:102E40009E85A30192010E94D866522E632E742E95
:102E5000B52FA62FF72F082FE92F2B893A2D4B2DB1
:102E60005C2D6D2D7E2D8F2D912FA52CB62CC72C72
:102E7000DB2EEA2EFF2E1E2F0E942568A0E00E9466
:102E800037680CF044C0292D382D4B8D5BA16CA107
:102E90007DA1C101A0E80E941968922E832E4B8F5C
:102EA0005BA36CA37DA31C01E92CF82C0B8D1BA14B
:102EB0002CA13DA1A1016EA97FA98DA90E94ED0EB3
:102EC000E9960FB6F894DEBF0FBECDBFDF91CF916C
:102ED0001F910F91FF90EF90DF90CF90BF90AF9038
:102EE0009F908F907F906F905F904F903F902F902A
:102EF00008959D0122503C4F3FAB2EAB2EA13FA128
:102F000048A559A56AA57BA59CA50AE0CBCDA0E064
:102F10000E94376849F2689490F8C6CF0B2F92014F
:102F2000A301B401CF010E942910CACF2F923F9272
:102F30004F925F926F927F928F929F92AF92BF92C9
:102F4000CF92DF92EF92FF920F931F93CF93DF9375
:102F500000D000D000D0CDB7DEB7782E4B01E02FE7
:102F600059014987F52F9701402F512FB5018985C8
:102F70009F2F00E20E94F567D22E032F942F852FFA
:102F80004D2D502F692F782F00E041155105610517
:102F9000710529F44E2D5F2D6E2F712F00E2411522
:102FA000510521E06207710520F4005FBA01552741
:102FB000442741155105610581E0780728F4085F31
:102FC000762F652F542F4427472F552766277727BD
:102FD0004E595D4F0150DA018C91080FC02E002E22
:102FE000000CDD088C189D080A300CF47AC0BDEF87
:102FF0008B16B7E09B0608F074C0272D30E040E048
:1030000050E060E070E080E090E00FE30E94DA675B
:10301000422E332E242EB52F6A837B838C839D838F
:1030200097014E2F512FB50189859F2FA0E00E9457
:10303000376809F44DC0992D990F990B9401492FC8
:10304000592F692F792F892F04E30E94DA67922E76
:1030500038874E83A52F862E772E682E592E2AE08C
:10306000C21AD10897014E2F512FB50189859F2F84
:103070000C2D0E94DA67A42CB32CC22CDB2EEA8024
:10308000FB800C811D810E941068A92CB884CE8021
:10309000DA2EE82CF72C062D152D0E9410682996A3
:1030A0000FB6F894DEBF0FBECDBFDF91CF911F9159
:1030B0000F91FF90EF90DF90CF90BF90AF909F90D7
:1030C0008F907F906F905F904F903F902F900895DA
:1030D0009E2CF886EE83A12F8A2C7B2C69845F2E90
:1030E000BECF9F2F8985B501512F4E2F97010E948A
:1030F000DA6779018A019B01AC01B401872D0E9436
:10310000ED0ECDCF6F927F928F929F92AF92BF9232
:10311000CF92DF92EF92FF920F931F93CF93DF93A3
:103120007901A42F152FF62FE72FC82FB92F0FE302
:103130000E94F567622E0A2F7E2C8F2C9A2EA12ECC
:10314000BF2ECE2EDC2EDB2FDF772E2D3F2D4A2FEC
:10315000512F6F2F7E2F8C2F9D2FA0E00E9437685C
:1031600011F5662049F0712C812C912CA12CB12CE9
:10317000C12C80EED82ED3EC272D382D492D5A2D79
:103180006B2D7C2D8D2D9D2FDF91CF911F910F9158
:10319000FF90EF90DF90CF90BF90AF909F908F9077
:1031A0007F906F900895662059F09701A8019B2F9A
:1031B0000E94936779018A01F62FE72FC82FB92F54
:1031C000862D2F2F3E2F4C2F5B2F6CE374E00E9437
:1031D0009617DACF2F923F924F925F926F927F9223
:1031E0008F929F92AF92BF92CF92DF92EF92FF9217
:1031F0000F931F93CF93DF93CDB7DEB7AC970FB686
:10320000F894DEBF0FBECDBF29013A01962EB72F2D
:10321000F82FE92F0AA78E8E04E30E94F567298311
:103220003A8329813A8137703A8329839501A6012F
:10323000B7018AA5912F0E94F56729873A874985AA
:103240005A8557705A87498789819A81841B950BC3
:103250009C8B8B8B9201A301692D7B2F8F2F9E2F2F
:103260000AE00E94DA673BA74D8B5E8B6F8B788FED
:10327000898F9CA71F8E3C7F3A8B48A359A36AA3D2
:103280007BA38CA39F73998B9501A601B7018AA597
:10329000912F0E94DA674A8F5B8F6C8F7D8F282E6B
:1032A0001DA2232F2C7F322E4EA35FA368A779A7E0
:1032B000A82F492F4F73842E4B895C89141615064D
:1032C0000CF428C1452B09F05DC049815A814F3F5C
:1032D000574061F52BA5322B4D895A8D452B5E89C0
:1032E0008B8D582B6F892C8D622B788D8D8D782B43
:1032F0002CA5922B3C7F20E0898D82299F73A0E032
:103300000E94376809F018C180E10E94B60B412C79
:10331000512C612C712C912CB0E0F8EFEFEF920161
:10332000A301692D7B2F8F2F9E2FC2C0E981FA81C7
:10333000EF2B31F4E1E0F0E0FA87E987FA83E983E3
:1033400020E03A894D895E896F89788D898D9989C8
:10335000A12CB32CCA8CDB8CEC8CFD8C022D182D8F
:103360000E942E6811F008F03AC10E942E6808F4FD
:103370007AC0412C512C612C712C912CB0E0F0E0E2
:10338000E0E0CDCF29853A852F3F374011F520E089
:10339000332D4A8D5B8D6C8D7D8D982DA0E00E9424
:1033A000376809F0C9C021E0EE8D2E2730E040E0FB
:1033B00050E060E070E080E090E00FE30E94DA67A8
:1033C0008051904829013A01962EB72FF82FE92F06
:1033D000A6CFE981FA81EF2B09F083C03A894D89A4
:1033E0005E896F89788D898D998920E0A12CBA88B2
:1033F000CD88DE88EF88F88C098D19890E941068C5
:1034000029013A01962EB72FF82FE92F2B893C89F5
:10341000223C3F4F0CF46DC09201A3010B891C8923
:103420000F7311270E94DA6711E0A0E00E9437684D
:1034300009F410E0EB88FC88F194E194F108920122
:10344000A301692D7B2F8F2F9E2F0E2D0E94F567D4
:10345000122B1F8F3A8B48A359A36AA37BA38CA37B
:10346000998B689486F881E0EE8DE827EE8F20E056
:10347000332D4A8D5B8D6C8D7D8D822D982DAF8C7B
:10348000BA88C8A0D9A0EAA0FBA00CA119890E9403
:103490002568E985FA85FA83E983E981FA8131971C
:1034A00079018A019B01AC01BF018E8D0E949617A4
:1034B000AC960FB6F894DEBF0FBECDBFDF91CF91B3
:1034C0001F910F91FF90EF90DF90CF90BF90AF9042
:1034D0009F908F907F906F905F904F903F902F9034
:1034E000089530E040E050E060E070E080E090E47B
:1034F0007CCF11E09201A301A0E00E94376809F49B
:1035000010E01F8F1A8A18A219A21AA21BA21CA2CD
:10351000198AA7CF29813A812F3F3740B9F420E09B
:103520003A894D895E896F89788D898D9989A0E066
:103530000E94376809F4F3CE0AA59201A301692D10
:103540007B2F8F2F9E2F0E9429103CCFE985FA8573
:10355000EF2B09F057C0332D4A8D5B8D6C8D7D8D1F
:10356000982D20E0A12CB32CCA8CDB8CEC8CFD8C2C
:10357000022D182D0E94106839014A01162FB72F0D
:10358000F82FE92F2B893C892F3331050CF042C0ED
:103590007901F194E194F1083FE3E322FF249301E0
:1035A0000E2D0E94DA6755245394A0E00E943768DC
:1035B00009F4512C9301A401612F7B2F8F2F9E2F93
:1035C0000B890E94F567522A5DA2332E4EA35FA39A
:1035D00068A779A7A82F892EE989E064E98B20E004
:1035E0003A894D895E896F89788D898D9989ADA0D9
:1035F000B32CCEA0DFA0E8A4F9A40A2F182D0E94B6
:1036000025684BCF30E040E050E060E070E080E0C3
:1036100090E4A7CF01E09301A0E00E94376809F48D
:1036200000E00DA3312C1EA21FA218A619A6A0E02F
:10363000812CD2CF2F923F924F925F926F927F92C6
:103640008F929F92AF92BF92CF92DF92EF92FF92B2
:103650000F931F93CF93DF93CDB7DEB7AB970FB622
:10366000F894DEBF0FBECDBF322E532E642E252E12
:10367000462E772E898BB92FCB8E0C8F8D8E04E33F
:103680000E94F56729833A8349815A8157705A838A
:1036900049839501A601B7018C8D912F0E94F56792
:1036A00029873A8789849A8457E0952289819A816B
:1036B000881999099A878987232D352D462D522DF2
:1036C000642D772D89899B2F09E00E94DA673AA73C
:1036D000C42E5C8B6D8B7E8BA82F9BA71E8EE32F39
:1036E000EE7FEA8B4F8F58A369A37AA38BA39F71B8
:1036F0009B8B95014B8D5D2DB7018C8D912F0E9479
:10370000DA674F8B588F698F7A8F082F1CA2E32FAF
:10371000EE7F4DA35EA36FA378A789A7F92FFF7152
:1037200049855A85452B09F099C049815A814F3FF7
:10373000574011F5EAA53E2B4F894C295C89E88D4D
:103740005E2B6D89E98D6E2B7E89EA8D7E2BEBA534
:103750009E2B3E7F20E08A2F802B9F71A0E00E944D
:10376000376809F0BBC1232D352D462D522D642D10
:10377000772D89899B2F59C049815A81452B99F50D
:10378000232D352D462D522D642D772D89899B2F84
:10379000CB8C0C8D0E94106839014A01B62FA72FDF
:1037A000F82FE92FEF772D8D30E040E050E060E01A
:1037B00070E080E090E00FE30E94DA6759016A014F
:1037C0007B018C019301A4016B2F7A2F8F2F9E2FE9
:1037D0000E941068322E532E642E252E462E772EF0
:1037E000898BB92FC0CF20E03E2F4F89588D698D2E
:1037F0007A8D802F9F2F905CA12CBA88DC88ED8871
:10380000FE880A2F1B890E94106879018A01F62F11
:10381000D72EB82FA92F89809A802F2F3D2D4B2F7F
:103820005A2FB4018D8D0E94ED0EAB960FB6F89411
:10383000DEBF0FBECDBFDF91CF911F910F91FF90E3
:10384000EF90DF90CF90BF90AF909F908F907F9040
:103850006F905F904F903F902F90089589859A8543
:1038600097FFC6C09FEF891697E09906D9F420E02C
:103870003E2F4F89588D698D7A8D802F9F2FA0E024
:103880000E94376809F02AC12D8D30E040E050E0F9
:1038900060E070E080E090E00FE30E94DA67805122
:1038A000904898CF49815A81452B09F082C03A89C6
:1038B0004C2D5C896D897E898A2F9B8920E0A12C03
:1038C000BA88DC88ED88FE880A2F1B890E94106860
:1038D000622EA32EB42EC52ED62EE72EF82E192F2B
:1038E00089859A85823C9F4F0CF46BC0262D3A2D1A
:1038F0004B2D5C2D6D2D7E2D8F2D912F29843A849B
:10390000AFE32A223324022D0E94DA67B1E0A0E05F
:103910000E94376809F4B0E029843A8431942194F4
:103920003108262D3A2D4B2D5C2D6D2D7E2D8F2DA2
:10393000912F022D0E94F567B22BBE8F3A8B4F8FCD
:1039400058A369A37AA38BA39B8B2E8D3A894F8DA5
:1039500058A169A17AA18BA19B89ACA0BE2ECDA054
:10396000DEA0EFA0F8A409A51F2F0E941068905EAA
:1039700079018A01F62FD72EB82FA92F2F3FEFEF0D
:103980003E074E075E076E077E078E07EFE39E0732
:1039900011F008F042CF21E0821A91082E2D01E0AB
:1039A0000E94DA6779018A01F62FD72EB82FA92F46
:1039B00034CF30E040E050E060E070E080E090E242
:1039C0007DCFB1E0262D3A2D4B2D5C2D6D2D7E2D1A
:1039D0008F2D912FA0E00E94376809F4B0E0BE8FD0
:1039E0001A8A1F8E18A219A21AA21BA21B8AADCF77
:1039F00049815A814F3F574049F420E03A894C2D84
:103A00005C896D897E898A2F9B89A8CE892809F0D7
:103A100048C03E2F4F89588D698D7A8D802F9F2FFA
:103A200020E0A12CBE2ECF88D88CE98CFA8C1F2FD9
:103A30000E94106869017A01162FB72FF82FE92F1D
:103A400049855A854F335105A4F55A01B194A19483
:103A5000B1085FE3A522BB249601A701612F7B2F4C
:103A60008F2F9E2F0A2D0E94DA67BB24B394A0E00B
:103A70000E94376809F4B12C9601A701612F7B2FB2
:103A80008F2F9E2F09850E94F567B22ABCA2E32FD3
:103A90004DA35EA36FA378A789A7F92F89809A8089
:103AA00054CF30E040E050E060E070E080E090E231
:103AB000B7CF01E09601A701612F7B2F8F2F9E2F9B
:103AC000A0E00E94376809F400E00CA3E0E01DA22A
:103AD0001EA21FA218A619A6F0E0E0CFCB8C0C8D79
:103AE000232D352D462D522D642D772D89899B2F21
:103AF0000E9429106FCE2F923F924F925F926F9249
:103B00007F928F929F92AF92BF92CF92DF92EF926D
:103B1000FF920F931F93CF93DF9300D000D01F929B
:103B20001F92CDB7DEB729013A014B011C011A8360
:103B30000983EE82CB8218862C2D220F220B2F8335
:103B40009201A301B401C101A0E0E8850E2E000C92
:103B5000FF0BFD83EC830E94376879F429803A805B
:103B60002E0E3F1E80E338856E8136179CF53F5F31
:103B70003887D1018D931D01F6CFAB80BF80CB2C50
:103B8000DB2CEB2CFB2C0B2D1B2D0E94036780E301
:103B9000820F8A3314F087E3820FF885FF5FF8877E
:103BA000E981FA812C813D81E20FF31F8083AB8094
:103BB000BF80CB2CDB2CEB2CFB2C0B2D1B2D920177
:103BC000A301B401C1010E94056729013A014B011B
:103BD0001C01B6CFB8858B2FBB0F990BE981FA81F9
:103BE000AF01480F591F30E020E03C0161E0661A48
:103BF0007108B301621B730B2617370784F46191B8
:103C000041505109DA017C914F01B1E08B1A9108C2
:103C1000D4017C93DA016C932F5F3F4FEACFF1011F
:103C2000108228960FB6F894DEBF0FBECDBFDF918D
:103C3000CF911F910F91FF90EF90DF90CF90BF90A9
:103C4000AF909F908F907F906F905F904F903F903C
:103C50002F900895FC012281338144815581668132
:103C600077818085918508953F924F925F926F9200
:103C70007F928F929F92AF92BF92CF92DF92EF92FC
:103C8000FF920F931F93CF93DF93FC014A015B01D7
:103C900080E292E09183808381149104A104B104B5
:103CA00009F46CC0DB01CA0120E08114910431E009
:103CB000A306B10420F4D4019927882720E10097B6
:103CC000A105C1E0BC0728F4285FBA2FA92F982FBF
:103CD00088278B2F9927AA27BB278E599D4F2B5EAC
:103CE000EC01A881A20F42E354E04A1B5109A7FD51
:103CF0005395952F990F990B9A01492F592F692F99
:103D0000792F892F04E30E94DA67322E432E542E36
:103D1000652E762ED72FC82FB92F9401A50160E00C
:103D200070E080E090E00A2F0E94DA6759016A0192
:103D30007B018C01232D342D452D562D672D7D2F94
:103D40008C2F9B2F0E9410682283338344835583DA
:103D50006683778380879187DF91CF911F910F9141
:103D6000FF90EF90DF90CF90BF90AF909F908F909B
:103D70007F906F905F904F903F90089520E030E0EB
:103D800040E050E060E070E080E090E0DDCFCF9276
:103D9000DF92EF92FF920F931F93CF93DF93EC018B
:103DA0000E948F096B017C012F8530E0F901E35DF2
:103DB000FF4E8491F901E951F04F1491F901EF554B
:103DC000F04F0491002309F45EC081110E94720833
:103DD000E02FF0E0EE0FFF1FED52F74FA591B491E9
:103DE000EC911E2331E020E009F430E0832F922F84
:103DF000282F2170298B2889211104C021E08227D6
:103E00008170898B89899A89891721F0CD8ADE8A08
:103E1000EF8AF88E4D895E896F89788DC41AD50A2C
:103E2000E60AF70A4B815C816D817E814C155D0548
:103E30006E057F0564F49A81891749F08A83882387
:103E400049F02B893C892F5F3F4F3C8B2B8B9A810C
:103E500091111CC04F81588569857A854C155D0587
:103E60006E057F0534F42B893C89398328831C8AAD
:103E70001B8A8A8BDF91CF911F910F91FF90EF905A
:103E8000DF90CF90089590E080E0B2CF4B855C85C5
:103E90006D857E854C155D056E057F0554F72B8974
:103EA0003C89319521953109E0CF0895FC0163707B
:103EB000668B8481958126813781613039F063304A
:103EC00029F091878087338722870895318720875B
:103ED0009387828708952F923F924F925F926F92BD
:103EE0007F928F929F92AF92BF92CF92DF92EF928A
:103EF000FF920F931F93CF93DF93CDB7DEB76A97EF
:103F00000FB6F894DEBF0FBECDBF9A8F898F7A832C
:103F100069834A01D22E18870F833701BC2CDC013C
:103F200059962D913C915A972115310509F015C1EB
:103F300018968D919C911997681779070CF0D7C145
:103F40001A968D919C91481759070CF0D0C14C2CB2
:103F5000512CB6E0CB9E600D711D11247C876B87C0
:103F6000161617060CF0C3C1EA2DF0E0FA87E987B0
:103F700093E0EE0FFF1F9A95E1F7F88BEF87CF01E3
:103F8000840F951F181619060CF0B1C1A98DBA8DB2
:103F900058968C91811104C0BFEABD1508F4D394E2
:103FA000A98DBA8DED91FC9111970284F385E02DD6
:103FB000CD011995B5E0DB9EC0011124E981FA819C
:103FC000FC83EB83312C212C9C012D523C4F388FEC
:103FD0002F8B4A2D50E05E8B4D8BEF89F88DE20DD3
:103FE000F31D44919E828D82D12CC12C69817A81EE
:103FF000620D731D7A8B698B842F90E09C8B8B8B69
:10400000E98DFA8DA081B18140FF82C0F1E0BF123D
:104010006FC0AF126DC01C96ED91FC912F81388559
:10402000A4014C0D5D1D69897A89898D9A8D199538
:10403000EB89FC89F595E7954E2F5FEFC51AD50AF8
:104040006D817E818D899E89680F791F7E836D8346
:1040500098E0C916D10481F6AFEF2A1A3A0AEB812B
:10406000FC81E40DF51DFC83EB83F5E02F16310494
:1040700009F0B3CF2F81388526153705B9F0A98D02
:10408000BA8DED91FC91B1E0BB1257C0AB1255C097
:1040900069817A816B5F7F4F0088F189E02D830110
:1040A00028E030E0A401898D9A8D1995A98DBA8DEB
:1040B000ED91FC9111970688F789E02DCD016A9664
:1040C0000FB6F894DEBF0FBECDBFDF91CF911F9129
:1040D0000F91FF90EF90DF90CF90BF90AF909F90A7
:1040E0008F907F906F905F904F903F902F9019949A
:1040F0001E96ED91FC91EF80F88409851A85920156
:104100004D815E816B817C81898D9A8D199590CFCF
:104110002F8138852615370509F48ACF31E0B3128F
:1041200007C0A31205C01C96ED91FC91930178CFB6
:104130001E96ED91FC917301E0CF6B857C8564192F
:1041400075090684F785E02D73010F8518899201A2
:10415000A401898D9A8D1995A9CFF901349694916E
:10416000329745915491D91AB7E0DB9E400D511D0D
:104170001124F901259134913C8B2B8BFA01259068
:104180003490FA013296749031963491398B32968C
:1041900064903196449041E04C1518F04A1508F0AF
:1041A0007FC0662D062C000C770B7C836B83842DDF
:1041B000042C000C990B9E838D83A98DBA8DED91F3
:1041C000FC9111970284F385E02DCD011995512CB6
:1041D000D12CC12CEA2DF0E0FA87E9872B2D30E0B5
:1041E0003C872B87A401440D511D47FC5A95588FDD
:1041F0004F8B69817A81660D711D67FC7A957E8788
:104200006D877989C71608F051CF2C2D30E04D818C
:104210005E81420F531FA985BA854A9FC0014B9FFB
:10422000900D5A9F900D1124FC01E80DF91DF88B9B
:10423000EF87852D612C4F89588D420F531F5E8B60
:104240004D8B671408F050C044244394480E877087
:1042500041F4C1010196EB89FC89E20DF31DD49074
:104260001C01D7FE19C0A98DBA8DED91FC91662D68
:1042700070E0B1E0BB1219C0AB1217C02D853E85AE
:10428000620F731F0484F585E02D2F8138854D89D9
:104290005E89898D9A8D1995DD0C6394842DD1CF1B
:1042A0001E821D821C821B8288CF4B815C81640F21
:1042B000751FAB85BC856A9FC0016B9F900D7A9F6F
:1042C000900D112469817A81680F791F0684F78522
:1042D000E02DEF80F88409851A859D014F85588966
:1042E000898D9A8D1995D8CF570CC3948ACF6A9629
:1042F0000FB6F894DEBF0FBECDBFDF91CF911F91F7
:104300000F91FF90EF90DF90CF90BF90AF909F9074
:104310008F907F906F905F904F903F902F90089577
:104320008F929F92AF92CF92EF92FF920F931F9333
:10433000CF93DF93EC01262F898D9A8D009709F09A
:1043400051C06A30D1F41D861C868D8948E0849F57
:10435000900111248E859F85820F931F9F878E87E2
:1043600081E090E0DF91CF911F910F91FF90EF904E
:10437000CF90AF909F908F9008956D3089F3CC8847
:10438000AD888F898823C1F08C859D8536E0C39EDA
:10439000800D911D1124488559854817590764F4EB
:1043A0004E855F851D861C8638E0A39EC0011124C2
:1043B000840F951F9F878E87EA88FB880889198953
:1043C0004E855F856C857D85CE010E946B1F2C8993
:1043D0008C859D8546E0249F800D911D11249D872D
:1043E0008C87BECF6A3069F41D861C86FC01369628
:1043F000E4912D898E859F85E29F800D911D11246A
:10440000ADCF6D3009F4ACCFFC0134963491631715
:1044100008F4A6CF3196E491E61708F4A1CFFC0189
:10442000329685909490462F431B342F47E0349F5B
:10443000800C911C1124F401329634913196E49150
:104440003323A9F1EE2399F1CC88F4013596E49158
:10445000AD884F89442301F10E2E000CFF0BE30FB2
:10446000F11DCE9EA001CF9E500D11246C857D853F
:10447000460F571F68857985641775076CF44E855C
:104480005F851D861C86FC013696E491AE9E400D2C
:10449000511D11245F874E87EA88FB880889198996
:1044A0004E855F856C857D85CE010E946B1FF40172
:1044B0003496E4912C898C859D85E29F800D911D19
:1044C00011248DCF6F927F928F929F92AF92BF9265
:1044D000CF92DF92EF92FF920F931F93CF93DF93D0
:1044E000EC016B015A0139014801E881F98102842C
:1044F000F385E02D1995E881F9810288F389E02D93
:1045000087019301A501B601CE011995A501480DBA
:10451000591D41505109E881F9810288F389E02D44
:104520009301B601CE011995E881F9810088F189DE
:10453000E02D9401A501B601CE011995C60CD71C3A
:10454000B60161507109E881F9810088F189E02D97
:104550009401A501CE011995E881F9810688F789B2
:10456000E02DCE01DF91CF911F910F91FF90EF9041
:10457000DF90CF90BF90AF909F908F907F906F9083
:1045800019946F927F928F929F92AF92BF92CF9227
:10459000DF92EF92FF920F931F93CF93DF935C0113
:1045A000EB016A01490138018701DC01ED91FC91C1
:1045B0006217730719F5641675062CF0962D872D72
:1045C0003A01C92ED82E9601261937092F5F3F4F81
:1045D000048CF58DE02DA301BE01C5011995DF9175
:1045E000CF911F910F91FF90EF90DF90CF90BF90F0
:1045F000AF909F908F907F906F90089546155705CC
:1046000091F42617370724F0892D4B01C22FD82F9C
:104610009E01281939092F5F3F4F068CF78DE02D39
:10462000A601B401DACF0284F385E02D1995D501F6
:10463000ED91FC910488F589E02D83019401A60198
:10464000BE01C5011995D501ED91FC910688F78948
:10465000E02DC501DF91CF911F910F91FF90EF9059
:10466000DF90CF90BF90AF909F908F907F906F9092
:104670001994EF92FF920F931F93DC011A960D91FC
:104680001C911B9718962D913C911997ED91FC91D7
:1046900000A0F1A1E02D7B0150E040E070E060E07F
:1046A00019951F910F91FF90EF9008954F925F928F
:1046B0006F927F928F929F92AF92BF92CF92DF9232
:1046C000EF92FF920F931F93CF93DF936C012B0117
:1046D0005A0139014801DC01ED91FC910284F38516
:1046E000E02D1995E201640C751CD601ED91FC9149
:1046F000C615D7055CF40088F189E02D8701940187
:10470000A501BE01C60119952196EFCF0688F7894C
:10471000E02DC601DF91CF911F910F91FF90EF9097
:10472000DF90CF90BF90AF909F908F907F906F90D1
:104730005F904F9019948F929F92AF92BF92CF92B9
:10474000DF92EF92FF920F931F93CF93DF93EC01D1
:104750005B014A016901E881F9810284F385E02D5A
:10476000199595012C0D3D1D21503109E881F981E4
:104770000488F589E02D78018401A401B501CE01FA
:104780001995E881F9810688F789E02DCE01DF913E
:10479000CF911F910F91FF90EF90DF90CF90BF903E
:1047A000AF909F908F9019948F929F92AF92BF92EB
:1047B000CF92DF92EF92FF920F931F93CF93DF93ED
:1047C000EC015B014A0169017801E881F981028409
:1047D000F385E02D1995C80CD91C860101501109EB
:1047E000E881F9810488F589E02D9501A401B501DE
:1047F000CE011995E881F9810688F789E02DCE016F
:10480000DF91CF911F910F91FF90EF90DF90CF90AC
:10481000BF90AF909F908F901994EF92FF920F935B
:104820001F93DC01ED91FC9100A0F1A1E02D199501
:104830001F910F91FF90EF9008950F931F93DC014C
:10484000ED91FC91068CF78DE02D19951F910F913C
:1048500008950F931F93DC01ED91FC91048CF58D6D
:10486000E02D19951F910F910895DC01ED91FC91B8
:104870000084F185E02D19943F924F925F926F92E0
:104880007F928F929F92AF92BF92CF92DF92EF92E0
:10489000FF920F931F93CF93DF935C017B014A013B
:1048A0006901390187E0680E711C93E07594679483
:1048B0009A95E1F72B01400E511E10E000E0312CDB
:1048C000D0E0C0E0CE0187709927330C892B59F4D2
:1048D000FE0183E0F595E7958A95E1F7E00FF11F7A
:1048E000E80DF91D349037FE0AC021E030E0A70141
:1048F000B5016C0F7D1F8EEF98E00E943524219644
:10490000CC16DD06F9F68FEFE81AF80A060D171D2A
:10491000E414F504A9F6DF91CF911F910F91FF9058
:10492000EF90DF90CF90BF90AF909F908F907F904F
:104930006F905F904F903F9008952F923F924F92CB
:104940005F926F927F928F929F92AF92BF92CF921F
:10495000DF92EF92FF920F931F93CF93DF9300D0DC
:1049600000D0CDB7DEB73C016A013E832D83FC82C7
:10497000EB825801A41AB50AB7FE03C0B194A19402
:10498000B1088D809E80861A970A97FE03C0919485
:10499000819491088A149B045CF0902F812F0D81E3
:1049A0001E819D838E839C2D8D2D6B01692F782F09
:1049B0000C151D055CF09D818E817E836D83692FB2
:1049C000782F902F812F8601C92ED82E1601201AFC
:1049D000310A2B012D813E81421A530A57FE03C032
:1049E000519441945108710137FE03C03FEFE31A1F
:1049F000F30AF594E7948D819E81861797075CF5FD
:104A0000A1E0B0E0BA83A983C016D1064CF1D3016E
:104A1000ED91FC910484F585E02D2B813C81A8016A
:104A20006D817E818A149B041CF04D815E81B801EA
:104A3000C3011995E418F508F7FE0AC02D813E81DF
:104A400089819A81280F391F3E832D83E20CF31C44
:104A50000F5F1F4FD9CF2FEF3FEF3A832983D4CF7A
:104A600026960FB6F894DEBF0FBECDBFDF91CF9173
:104A70001F910F91FF90EF90DF90CF90BF90AF907C
:104A80009F908F907F906F905F904F903F902F906E
:104A90000895CF93CFB7F89480917D07811127C0F7
:104AA000E6EDFFE08491ECE1F0E19491E82FF0E095
:104AB000EE0FFF1FE359F04FA591B491EC91E9235C
:104AC00021F461E085E30E94D90861E085E30E945A
:104AD00007098CB580618CBD8CB580648CBD61E0AC
:104AE00084E30E94070961E083E30E940709809143
:104AF0007D078F5F80937D07CFBFCF910895EF92A1
:104B0000FF920F931F93CF93DF93EC01EC80FD8016
:104B10006E157F050CF070C057FF04C0240F351FC1
:104B200050E040E08E819F81FA01E20FF31F8E1763
:104B30009F071CF49C01241B350B121613060CF066
:104B40005BC0922F842F8695869586958E9DD00189
:104B50008F9DB00D11246A0F7B1FAF8DB8A1A60FDA
:104B6000B71F477049F188E0841B482F682F70E019
:104B7000FB01E553FC4FE491281708F063C0621B6A
:104B800071092FEF30E002C0359527956A95E2F75D
:104B9000E2230130110539F0B0F10230110561F561
:104BA0008C91E82702C08C91E82BEC93941720F1AC
:104BB0002C813D81A20FB31FE92FE41BE83078F070
:104BC0000230110521F58E2F9C9190959C932C819C
:104BD0003D81A20FB31F88508830B0F7E770EE23F5
:104BE00059F0F0E0ED53FC4FE49101301105F9F07C
:104BF00010F10230110519F1DF91CF911F910F9142
:104C0000FF90EF900895E0958C91E823CECF81E05E
:104C10000115110509F480E081959E2F8C932C815C
:104C20003D81A20FB31F98509830C0F7D7CF8C9119
:104C3000E82BEC93E1CFE0958C91E823FACF8C91AF
:104C4000E827F7CF0130110509F4ADCFE0F20230CB
:104C5000110509F4A5CFAE0DBF1DAECF0F931F9365
:104C6000CF93DF9377FF04C0260F371F70E060E01B
:104C7000DC011496CD91DC91FB01E20FF31FCE17FE
:104C8000DF071CF49E01261B370B121613064CF58A
:104C9000FA0157FD3796A3E0F595E795AA95E1F758
:104CA000EC9FD001ED9FB00DFC9FB00D11246A0F59
:104CB0007B1FDC015F96ED91FC91E60FF71F4770BB
:104CC000552781E090E001C0880F4A95EAF7482F08
:104CD0000130110559F0A8F02E0F3F1F02301105C9
:104CE000E1F0DF91CF911F910F9108952E0F3F1F9B
:104CF000E217F307B1F38191DF011197842B8C93B5
:104D0000F7CF80952E0F3F1FE217F30751F39191D4
:104D1000DF01119798239C93F7CFE217F30709F36C
:104D20008191DF01119784278C93F7CF0F931F9305
:104D3000FA01DC0156964C9156974230E9F0433027
:104D4000A1F1413061F514964D915C91DA01AE1BF1
:104D5000BF0BFD01E21BF30B77FD0BC0DC011696C8
:104D60004D915C916417750724F4AB01BF010E945B
:104D70002E261F910F91089514964D915C91DA01A2
:104D8000A61BB70BBD0161507109DC0116964D9150
:104D90005C91DA01AE1BBF0BFD01E21BF30B77FD4B
:104DA000E8CFAF010E947F25E4CF16964D915C912C
:104DB000DA01A61BB70BBD0161507109CDCF0F936E
:104DC0001F93FA01DC0156964C9156974230A9F098
:104DD000433091F1413019F514964D915C91DA010F
:104DE000AE1BBF0BFD013197F7FD04C0AB01BF0146
:104DF0000E947F251F910F91089514964D915C910B
:104E0000DA01A61BB70BBD01DC0116964D915C9132
:104E1000DA01AE1BBF0BFD013197621B730BF7FD6F
:104E2000E9CFDC0116964D915C91E417F50714F774
:104E3000AF010E942E26DECF16964D915C91DA01CD
:104E4000A61BB70BBD01621B730BCECFFC0177FD18
:104E500064C080859185681779070CF05EC057FDA6
:104E60005CC082859385481759070CF056C0868927
:104E70008230B1F0833029F1813041F48481958111
:104E8000841B950BAB01BC016150710921303105C8
:104E900009F108F443C02230310509F463C00895D4
:104EA00084819581DC01A61BB70BBD01615071099E
:104EB00086819781DC01A41BB50BAD0141505109DE
:104EC000E5CF86819781861B970BBA01AC014150D3
:104ED0005109DCCFCA0157FD0796A3E09595879548
:104EE000AA95E1F7A481B5818A9F90018B9F300D2F
:104EF0009A9F300D1124620F731F078CF0A1E02DD3
:104F0000E60FF71F4770552721E030E001C0220F60
:104F10004A95EAF78081822B80830895CA0157FD64
:104F2000079633E0959587953A95E1F7A481B58189
:104F30008A9F90018B9F300D9A9F300D1124620F34
:104F4000731F078CF0A1E02DE60FF71F4770552760
:104F500081E090E001C0880F4A95EAF78095908142
:104F60008923DACFCA0157FD079623E095958795E7
:104F70002A95E1F7A481B5818A9F90018B9F300D1E
:104F80009A9F300D1124620F731F078CF0A1E02D42
:104F9000E60FF71F4770552721E030E001C0220FD0
:104FA0004A95EAF780818227B7CF08958CBD9DBDD1
:104FB0000895089520913307260F3327331F213298
:104FC0003105ECF420915707FC0190E080E024309B
:104FD00069F082E00895A09133072191AC014D5E04
:104FE000584FA40FB52FB11D2C930196861798F337
:104FF00080913307680F6093330780E0089581E064
:1050000008951092570781E080935907109258072E
:1050100061E084E10E94D90861E085E10E94D9083D
:10502000E9EBF0E080818E7F808380818D7F8083BB
:1050300088E48093B80085E48093BC000895CF9302
:10504000DF9391E0909312078823B9F0C091B800E4
:10505000D091BA008091BC008A7B8093BC0060E054
:1050600084E10E94D90860E085E10E94D9080E948D
:105070000128D093BA00C093B800DF91CF91089572
:10508000E091930780919207E81730F4F0E0E35144
:10509000F94F808190E008958FEF9FEF08959091F0
:1050A0009307809192072FEF3FEF981748F4E92F6D
:1050B000F0E0E351F94F208130E09F5F9093930738
:1050C000C90108958091920790919307891B990BCC
:1050D0000895CF92DF92EF92FF920F931F93CF9399
:1050E000DF937C01CB018A012091D907222389F02B
:1050F000EB016B01C40ED51ECC15DD0569F069917D
:10510000D701ED91FC910190F081E02DC701199537
:10511000F3CF642F0E94DA27C801DF91CF911F914E
:105120000F91FF90EF90DF90CF900895CF93DF9392
:105130001F92CDB7DEB769832091D9072223F9F0FA
:105140002091D607203258F021E030E0FC01338373
:10515000228390E080E00F90DF91CF9108958091BD
:10516000D707E82FF0E0E353F94F998190838F5FE1
:105170008093D7078093D60781E090E0ECCF61E081
:10518000CE0101960E94DA27F7CFCF92DF92EF92FD
:10519000FF920F931F93CF93DF93D091D60781E0B7
:1051A000D13208F09CC0C091D8070E9438096B0129
:1051B0007C018091570781116CC082E08093570772
:1051C00081E0809359078FEF8093560710927B07F9
:1051D000D0937A07ADECB6E0EAE5F7E080E0D813CB
:1051E0008DC010927C0780917C07CC0FC82BC09398
:1051F0007C0780915807813009F084C010925807CD
:105200000E9438096B017C0180917C078093BB0070
:1052100080910E0790910F07A0911007B091110790
:10522000892B8A2B8B2BA1F00E94380900910E0745
:1052300010910F0720911007309111076C197D090B
:105240008E099F09061717072807390708F442C077
:105250008091BC0083FDD8CF85EC8093BC000E9478
:1052600038096B017C0180915707823009F44CC0EA
:10527000809156078F3F09F469C0809156078032AC
:1052800009F466C080915607803309F463C084E056
:1052900026C080910E0790910F07A0911007B09142
:1052A0001107892B8A2B8B2B09F483CF0E94380995
:1052B00000910E0710910F072091100730911107F0
:1052C0006C197D098E099F090617170728073907EA
:1052D00008F06FCF80910D070E941F2885E0109283
:1052E000D7071092D6071092D907DF91CF911F915F
:1052F0000F91FF90EF90DF90CF9008959D91919343
:105300008F5F6DCF85EEA9CF80910E0790910F072B
:10531000A0911007B0911107892B8A2B8B2B09F4D0
:10532000A2CF0E94380900910E0710910F0720911B
:105330001007309111076C197D098E099F09061716
:1053400017072807390708F08ECFC4CF80E0C7CFF2
:1053500082E0C5CF83E0C3CF90E080E008958F92D4
:105360009F92AF92BF92CF92DF92EF92FF92C09046
:10537000A807D090A907E090AA07F090AB0760912A
:105380000602709107028091080290910902A7011C
:1053900096010E94216249018091B2079091B30762
:1053A000092E000CAA0BBB0B9C01AD012C0D3D1D61
:1053B0004E1D5F1DD4010E947866FF90EF90DF9034
:1053C000CF90BF90AF909F908F9008952F923F9273
:1053D0004F925F926F927F928F929F92AF92BF9205
:1053E000CF92DF92EF92FF920F931F93CF93DF93B1
:1053F00000D000D000D01F92CDB7DEB74B015C01CA
:105400000E94AF296B017C01B501A401CE01019678
:105410000E94341ECE0101960E942A1E4901742E5C
:10542000652E562E472E382E292EB701A601CE0105
:1054300001960E94341ECE0101960E942A1E590137
:105440006A017B018C014FEF5FEFBA01CE0101963B
:105450000E94341ECE0101960E942A1E0E94111441
:105460005401C72CD62CE52CF42C032D122D0E94B0
:10547000451100E00E94BC0B2A960FB6F894DEBFDF
:105480000FBECDBFDF91CF911F910F91FF90EF9095
:10549000DF90CF90BF90AF909F908F907F906F9054
:1054A0005F904F903F902F900895CF93DF93C3E28A
:1054B000D0E0CE010197F1F760E086E00E94D908C4
:1054C000CE010197F1F761E086E00E94D908CE0194
:1054D0000197F1F760E086E00E94D9082197F1F783
:1054E000DF91CF9108958EBD00000DB407FEFDCF72
:1054F0008EB50895FF920F931F93CF93DF93F82EED
:10550000D92FC62F80911B0990911C09009709F48F
:1055100052C020911F0931E03093D9072093D8075A
:105520001092D7071092D607DC01ED91FC91019003
:10553000F081E02D60E019950F2D1D2FD1E0FF24A3
:10554000F394C15080911B0990911C09CF3F61F1E8
:10555000D032C8F00E94C52880911B0990911C0987
:1055600020911F09F092D9072093D8071092D707EE
:105570001092D607DC01ED91FC910190F081E02DB5
:1055800060E01995D1E080911B0990911C09F80108
:105590006491DC01ED91FC910190F081E02D199571
:1055A000DF5F0F5F1F4FCDCFDF91CF911F910F9125
:1055B000FF900C94C528E0912B09F0912C09908163
:1055C000809131098095892380830F2D1D2FC15033
:1055D00008F438C0F80184912091190930911A0912
:1055E000232B29F00E94732A0F5F1F4FF0CF28E072
:1055F00030E040E8E0912709F091280990912F09C7
:10560000582F5423D9F05081952B9083E09129098C
:10561000F0912A09908150913009952B9083E09167
:105620002909F0912A09508190913009909595238C
:105630009083469521503109E9F6D6CF5081909557
:105640009523E3CFDF91CF911F910F91FF900895A4
:105650000F931F93CF93DF93EC018C01060F171F5D
:1056600089910E94732AC017D107D1F7DF91CF919A
:105670001F910F9108958F929F92AF92BF92CF92F8
:10568000DF92EF92FF921F93CF93DF93182FD62FC5
:1056900069017A0161E08DE00E94070961E08BE019
:1056A0000E94070960E08CE00E94070961E08AE03F
:1056B0000E94070961E086E00E94070961E089E035
:1056C0000E94070961E089E30E94070961E084E024
:1056D0000E94070961E083E00E94070961E082E01F
:1056E0000E94070961E088E20E94070961E086E202
:1056F0000E94070961E087E20E94070961E089E2F0
:105700000E94070961E088E00E94070961E085E0E6
:105710000E94070961E087E00E94070960E08AE2D1
:105720000E94070960E08EE20E94070960E08FE2B4
:105730000E94070960E08DE20E94070960E08CE2A8
:105740000E94070960E086E00E94D90860E089E3D2
:105750000E94D90860E08AE00E94D90860E088E2EF
:105760000E94D90860E084E00E94D90860E083E0EC
:105770000E94D90860E082E00E94D90860E088E0D9
:105780000E94D90860E087E00E94D90860E085E0C7
:105790000E94D90861E089E30E94D90883E290E081
:1057A0000197F1F760E089E30E94D90860E086E0A4
:1057B0000E94D90861E08AE00E94D90861E088E28D
:1057C0000E94D90860E084E00E94D90860E083E08C
:1057D0000E94D90860E082E00E94D9080E94492511
:1057E0008CB5837F8CBD8CB58C7F81608CBD8DB575
:1057F00081608DBD8CB58F7D8CBD60E08AE00E949C
:10580000D9081092C4061092C5061092C6061092CE
:10581000C706C2E0C093C80665E070E084EC96E07D
:105820000E94282B61E08AE00E94D9080E94552A34
:1058300060E08AE00E94D90881E08093C4068093EA
:10584000C5061092C6061092C70680E28093C8066D
:1058500065E070E084EC96E00E94282B61E08AE02D
:105860000E94D9080E94552A60E08AE0113009F4AC
:105870004AC00E94D908C093C4061092C50610926F
:10588000C60680E4D11101C080EC8093C706109257
:10589000C80665E070E084EC96E00E94282B61E089
:1058A0008AE00E94D9080E94552A60E08AE00E949E
:1058B000D90883E08093C4061092C5061092C606EC
:1058C0001092C7068091AC079091AD07892B09F023
:1058D00063C08FE78093C80665E070E084EC96E0D3
:1058E0000E94282B61E08AE00E94D908DF91CF91C5
:1058F0001F91FF90EF90DF90CF90BF90AF909F905F
:105900008F900C94552A0E94D908C093C4066091C8
:10591000060270910702809108029091090261309D
:105920002AEC72072AE982072BE3920770F523E03D
:105930002093C50628E32093C60621E42093C706DA
:105940000E94EC604B015C01C701B6010E94EC6053
:105950009B01AC01C501B4010E94E1626B017C01B5
:1059600020E030E0A9010E94546420E030E040E0F3
:105970005FE387FD0CC0C701B6010E945E620E9412
:105980008F63660F6093C80684CF25E0D1CFC7012F
:10599000B6010E945D62F3CF8FEF9CCF1F93CF9330
:1059A000DF93EC018D8D9E8D009721F1162F29A19B
:1059B00031E03093D9072093D8071092D70710927F
:1059C000D607DC01ED91FC910190F081E02D60E0C3
:1059D00019958D8D9E8DDC01ED91FC910190F081EA
:1059E000E02D612F19958D8D9E8DDF91CF911F91A7
:1059F0000C94C528ADA5BEA59C918BA98095892343
:105A00008C938B8D9C8D892B31F0862FDF91CF91DC
:105A10001F910C94732A28E030E080E8A9A5BAA56C
:105A200099A9462F4823C1F04C91942B9C93ABA588
:105A3000BCA59C914AA9942B9C93ABA5BCA54C9169
:105A40009AA9909594239C9386952150310931F71A
:105A5000DF91CF911F9108954C9190959423E6CFBB
:105A6000EF92FF920F931F93CF93DF9380911B09C7
:105A700090911C09892B09F493C02091350930912C
:105A80003609409137095091380960E074E284EF9B
:105A900090E00E9421622051310941095109569537
:105AA0004795379527952093B80065E083E790E107
:105AB0000E947A2A6091020961508EEF98E00E945C
:105AC000CE2C2091040930910509C901079697FD54
:105AD000079623E0959587952A95E1F7209102098D
