:020000040000FA
:100000000C9463080C9494080C9494080C94940831
:100010000C9494080C9494080C9494080C949408F0
:100020000C9494080C9494080C9494080C949408E0
:100030000C9494080C9494080C9494080C949408D0
:100040000C9494080C9494080C9494080C949408C0
:100050000C9494080C9494080C9494080C94D24E2C
:100060000C9494080C94464F0C941C4F0C949408D8
:100070000C9494080C9494080C9494080C94940890
:100080000C9494080C9494080C9494080C94940880
:100090000C9494080C9494080C9494080C947C4F41
:1000A0000C9494080C9494080C9494080C94940860
:1000B0000C9494080C9494080C9494080C94940850
:1000C0000C9494080C9494080C9494080C94940840
:1000D0000C9494080C9494080C9494080C94940830
:1000E0000C94940808000000BE922449123EABAA6A
:1000F000AA2ABECDCCCC4C3E00000080BEABAAAA42
:10010000AA3E00000000BF000000803F0000000089
:1001100000084178D3BB4387D1133D190E3CC3BDC2
:100120004282AD2B3E68EC8276BED98FE1A93E4C6F
:1001300080EFFFBE01C4FF7F3F00000000000763A7
:100140004236B79BD8A71A39685618AEBAAB558C49
:100150001D3CB7CC5763BD6DEDFD753EF617723192
:10016000BF000000803F05A84CCDB2D44EB9383650
:10017000A9020C50B9918688083CA6AAAA2ABE00FA
:100180000000803F0C94A4480C941F4E0C94F4097A
:100190000C947B230C94E8080C94C0090C948A5F9F
:1001A0000C94F0480C94D45F0C94074E0C9469673F
:1001B0000C94440A0C94CA080C94B5210C94D950A0
:1001C0000C94E6220C94634E0C94934D0C9487226D
:1001D0000C94F5080C949C470C94F0080C947F2E1A
:1001E0000C94324E0C945A240C944B270C94C22439
:1001F0000C94E2080C9491480C9442240C947B5F7C
:100200000C945E230C94854E0C948E280C94D40888
:100210000C9474280C94DE080C94974E0C94DB4DCF
:100220000C9427490C94AB5C0C94015C0C94300A40
:100230000C947C600C94DE470C9496080C94CA488D
:100240000C94BB280C947B1F0C94C1090C94FE27C2
:100250000C946B480C947E480C9432240C94E65A0F
:100260000C9429480C94210A0C94520A0C94BB2635
:100270000C94C3080C9454480C94EC080C94AA4EAB
:100280000C94434E0C94D70A0C9487280C94C708FE
:100290000C94544E0C94E95F0C94DA080C94535C63
:1002A0000C9402490C94FA080C94B5080C944E2452
:1002B0000C94D1290C94045B0C94F6080C94F25B1A
:1002C0000C94DD480C9404360C94744E0C94024843
:1002D0000C94BF080C944F490C9404270C94B74815
:1002E0000C94BB080C942B5C0C94B74D0C946C5F75
:1002F0000C94CA5C0C948A0A0C94405C0C9465289B
:100300000C94D0080C94E35B6364696E6F70737532
:1003100078585B00475241264146434800416D7082
:100320006C69747564653A00204F464600467265F4
:100330007175656E63792C205B487A5D3A004444A0
:100340005320414439393130000B0C0D0F1011127C
:100350001314141515161616161615151414131253
:1003600011100F0D0C0B0A09070605040302020108
:100370000100000000000101020203040506070954
:100380000A0B16161615151414131211100F0D0C56
:100390000B0A090706050403020201010000000020
:1003A00000010102020304050607090A0B0C0D0FE8
:1003B00010111213141415151616546F6F204C6F6C
:1003C0006E672054696D6500000103070F1F3F7FB2
:1003D0000080C0E0F0F8FCFE00000000003E5B4F33
:1003E0005B3E3E6B4F6B3E1C3E7C3E1C183C7E3C95
:1003F000181C577D571C1C5E7F5E1C00183C1800A3
:10040000FFE7C3E7FF0018241800FFE7DBE7FF3032
:10041000483A060E2629792926407F050507407FA0
:1004200005253F5A3CE73C5A7F3E1C1C08081C1C13
:100430003E7F14227F22145F5F005F5F06097F0109
:100440007F006689956A606060606094A2FFA294F4
:1004500008047E040810207E201008082A1C0808C2
:100460001C2A08081E101010100C1E0C1E0C303810
:100470003E3830060E3E0E06000000000000005F11
:1004800000000007000700147F147F14242A7F2A2D
:1004900012231308646236495620500008070300EF
:1004A000001C2241000041221C002A1C7F1C2A083B
:1004B000083E08080080703000080808080800009E
:1004C00060600020100804023E5149453E00427F12
:1004D000400072494949462141494D331814127F61
:1004E0001027454545393C4A494931412111090701
:1004F0003649494936464949291E00001400000082
:100500004034000000081422411414141414004153
:1005100022140802015909063E415D594E7C121110
:10052000127C7F494949363E414141227F41414148
:100530003E7F494949417F090909013E41415173C3
:100540007F0808087F00417F41002040413F017F34
:10055000081422417F404040407F021C027F7F04FC
:1005600008107F3E4141413E7F090909063E415145
:10057000215E7F09192946264949493203017F0135
:10058000033F4040403F1F2040201F3F4038403F36
:10059000631408146303047804036159494D43004C
:1005A0007F4141410204081020004141417F040283
:1005B000010204404040404000030708002054541A
:1005C00078407F28444438384444442838444428F8
:1005D0007F385454541800087E090218A4A49C784B
:1005E0007F0804047800447D40002040403D007FA7
:1005F0001028440000417F40007C047804787C0887
:100600000404783844444438FC182424181824245A
:1006100018FC7C08040408485454542404043F443F
:10062000243C4040207C1C2040201C3C4030403C6E
:1006300044281028444C9090907C4464544C4400CE
:100640000836410000007700000041360800020132
:100650000204023C2623263C1EA1A161123A40401E
:10066000207A38545455592155557941225454789B
:1006700042215554784020545579400C1E52721234
:1006800039555555593954545459395554545800BD
:1006900000457C410002457D420001457C407D12C1
:1006A00011127DF0282528F07C5455450020545423
:1006B0007C547C0A097F4932494949323A444444CE
:1006C0003A324A4848303A4141217A3A4240207809
:1006D000009DA0A07D3D4242423D3D4040403D3C0A
:1006E00024FF2424487E4943662B2FFC2F2BFF092F
:1006F00029F620C0887E0903205454794100004423
:100700007D413048484A32384040227A007A0A0A0D
:10071000727D0D19317D2629292F28262929292680
:1007200030484D4020380808080808080808382FC5
:1007300010C8ACBA2F102834FA00007B000008144F
:100740002A142222142A14085500550055AA55AA25
:1007500055AAFF55FF55FF000000FF00101010FFC5
:1007600000141414FF001010FF00FF1010F010F020
:10077000141414FC001414F700FF0000FF00FF1411
:1007800014F404FC141417101F10101F101F14145D
:10079000141F00101010F0000000001F10101010A7
:1007A0001F10101010F010000000FF10101010109B
:1007B00010101010FF10000000FF140000FF00FFD9
:1007C00000001F10170000FC04F414141710171475
:1007D00014F404F40000FF00F71414141414141497
:1007E000F700F7141414171410101F101F1414140A
:1007F000F4141010F010F000001F101F0000001F74
:1008000014000000FC140000F010F01010FF10FFA6
:10081000141414FF141010101F00000000F010FF3B
:10082000FFFFFFFFF0F0F0F0F0FFFFFF000000001F
:1008300000FFFF0F0F0F0F0F3844443844FC4A4AA3
:100840004A347E02020606027E027E026355494158
:10085000633844443C04407E201E2006027E02028F
:1008600099A5E7A5991C2A492A1C4C7201724C30A3
:100870004A4D4D303048784830BC625A463D3E497A
:100880004949007E0101017E2A2A2A2A2A44445F1E
:10089000444440514A444040444A51400000FF0112
:1008A00003E080FF000008086B6B08361236243620
:1008B000060F090F06000018180000001010003085
:1008C00040FF0101001F01011E00191D1712003C0D
:1008D0003C3C3C00000000000000200023002600FB
:1008E00029002C002F003200000100000301060146
:1008F0000901DB40A4A62EAFDA0281DA1281DA0206
:10090000818F2000A1C8D300408DAED580A8000003
:10091000600000000000000000000000000000E097
:100920000000000000000000000000000001E000E6
:1009300000000000000000000000000001F00000C6
:10094000000000000000000000000003F0000000B4
:100950000000000000000000000007F000000000A0
:1009600000000000000000000007F8000000000088
:1009700000000000000000000FF800000003C000AD
:100980007E000001E0007F0FF800000003C000FEC1
:10099000000001E000FFEFF800000003C000FE00CF
:1009A0000001E000FFFFF800000003C000F00000BD
:1009B000000F007FFE7FC0000003C000F0000000B9
:1009C0000F003FFE7FF83FF1FBCFFCFEF3BC3DEF95
:1009D000E01FFE7FFF7FFBFFDFFEFEFFBC3DEFE081
:1009E0001FC6FFFF7FFBFFDFFEFEFFBC3DEFE00FFA
:1009F000E3C7FE787BC3DE1EF0FFBC3DEF0007FFC0
:100A000087FC787BC3DE1EF0F83C3DEF0001FFFF62
:100A1000F0007BC3C01EF0F03C3DEF0001F37FE02F
:100A20003FFBC3CFFEF0F03C3DEF0003E33F807F90
:100A3000FBC3DFFEF0F03C3DEF0007E73C00787BB6
:100A4000C3DE1EF0F03C3DEF0007FFBE00787BC325
:100A5000DE1EF0F03C3DEF0007FFFE00787BC3DEBA
:100A60001EF0F03C3DEF000FFFFE007FFBFFDFFEBE
:100A7000F0F03FFDEFE00FFFFF007FFBFFDFFEF038
:100A8000F03FFDEFE00FF9FF003E79F9CF9EF0F067
:100A90001F3DE7E01FF1FF00000000000000000024
:100AA0000000001F80FF007FFFFFFFFFFFFFFFFF31
:100AB000FFE01C007F007FFFFFFFFEB46D888D18F4
:100AC000E000001F007FFFFFFFFE95AD7DB577E0E2
:100AD00000000F007FFFFFFFFEA5AD9D8D19E00018
:100AE0000006007FFFFFFFFEB5ADEDB57EE0000024
:100AF00000000001800000000000000000000380F2
:100B000000000000000000000007C000000000001E
:100B10000000000007C00000000000000000000FFF
:100B2000C00000000000000000001FE00000000006
:100B300000000000001FE0000000000000000000B6
:100B40003FE00000000000000000003FF000000057
:100B50000000000000007FF0000000000000001F07
:100B6000F87FF0000000000000003FFE7FF0000072
:100B700000000000003FFF7FF000000000000000C8
:100B80001FFFFBE0000000000000000FFFF9FFC0A6
:100B90000000000000000FFFF9FFF8000000000057
:100BA0000007FFF1FFFF00000000000003FC73FFDF
:100BB000FF80000000000001FE3FFFFF80000000FA
:100BC000000000FF1E0FFF000000000000007FFE7D
:100BD0001FFC000000000000003FFFFFF8000000C5
:100BE000000000000FDFFFE0000000000000001F19
:100BF00019FFC0000000000000003F3CFF000000A3
:100C000000000000007E7CF80000000000000000F2
:100C10007FFE7C0000000000000000FFFFFC0000E1
:100C2000000000000000FFFFFE00000000000000C8
:100C300000FFFFFE0000000000000001FFEFFE00CB
:100C400000000000000001FFCFFE000000000000D7
:100C50000003FF07FE0000000000000003FC07FE89
:100C60000000000000000003F003FE000000000090
:100C70000000018000FE00000000000000000000F5
:100C80007E000000000000000000003E00000000A8
:100C90000000000000000C000000000000078000C1
:100CA000FC000003C0000000078001FC000003C03E
:100CB000000000078001FC000003C0000000078066
:100CC00001E00000001E000000078001E0000000BD
:100CD0001E007FE3F79FF9FDE7787BDFC0FFF7FF9A
:100CE000BFFDFDFF787BDFC0FFF7FFBFFDFDFF7895
:100CF0007BDFC0F0F787BC3DE1FF787BDE00F0F7DB
:100D000087BC3DE1F0787BDE0000F787803DE1E0C5
:100D1000787BDE007FF7879FFDE1E0787BDE00FFD8
:100D2000F787BFFDE1E0787BDE00F0F787BC3DE1AF
:100D3000E0787BDE00F0F787BC3DE1E0787BDE0009
:100D4000F0F787BC3DE1E0787BDE00FFF7FFBFFDF9
:100D5000E1E07FFBDFC0FFF7FFBFFDE1E07FFBDFEE
:100D6000C07CF3F39F3DE1E03E7BCFC0000000007C
:100D700000000000000000FFFFFFFFFFFFFFFFFF7C
:100D8000FFC0FFFFFFFFFD68DB111A31C0FFFFFF4F
:100D9000FFFD2B5AFB6AEFC0FFFFFFFFFD4B5B3BE4
:100DA0001A33C0FFFFFFFFFD6B5BDB6AFDC04669C6
:100DB000726D7761726520762E3A0044445320416B
:100DC00044393931302041726475696E6F2053683F
:100DD00069656C6420627920475241202620414693
:100DE00043482E20286772612D616663682E636F09
:100DF0006D2900556E6B6E6F776E20636F6D6D6140
:100E00006E643A0046202D20536574204672657149
:100E100075656E637920696E20487A2028313030FC
:100E200030303020E2809420363030303030303076
:100E300030290A50202D20536574204F7574707529
:100E40007420506F77657220696E2064426D20288F
:100E50002D373220E280942030204F52202D36381A
:100E600020E28094202B342C20646570656E6469C8
:100E70006E67206F6E202244414320637572726555
:100E80006E7422290A4D202D20476574204D6F6411
:100E9000656C0A56202D20476574204669726D776F
:100EA0006172652056657273696F6E0A45202D2048
:100EB000456E61626C65204F75747075740A4420CC
:100EC0002D2044697361626C65204F757470757470
:100ED0000A68202D20546869732048656C700A3BAD
:100EE000202D20436F6D6D616E64732053657061BA
:100EF0007261746F720A4578616D706C653A0A466A
:100F00003130303030303B502D320A53657420463A
:100F100072657175656E637920746F203130302091
:100F20006B487A2C20616E64204F75747075742044
:100F3000506F77657220746F202D322064426D2EC1
:100F40000A416E79206E756D626572206F6620634E
:100F50006F6D6D616E647320696E20616E79206FB4
:100F60007264657220697320616C6C6F7765642EA2
:100F700000444453393931302076322E30004F75D9
:100F80007470757420456E61626C6564004F757491
:100F90007075742044697361626C65640053657494
:100FA00020506F7765722E3A200053657420667268
:100FB00065712E3A200000002100240027002A003D
:100FC0002D003000330001010000040107010A0177
:100FD00000002200250028002B002E0031003400E4
:100FE00002010000050108010B01050505050705C3
:100FF00008080808020202020A0A08080404040495
:1010000001010101010101010303030303030303C0
:10101000040707070C0C0C0C0C0C0C0C020202024F
:1010200006060606060606060B0B0B0B0B0B0B0B38
:1010300001021020200808102040102040800201EA
:1010400002010804020101020408102040808040CF
:1010500020100804020180040201804020100804CE
:10106000020108040201010204081020408001026C
:1010700004081020408000000A0B02090C0D0E0825
:101080000703040100000000000000000000000051
:101090000000000000000000000000000000000050
:1010A000000012111000000000000000000000000D
:1010B0000000000000000000000000002200FF21EE
:1010C0000000D9507C6011241FBECFEFD1E2DEBFFB
:1010D000CDBF00E00CBF29E0A0EAB6E001C01D9240
:1010E000A237B207E1F716E0A0E0B2E0EAE9F1EEDC
:1010F00000E00BBF02C007900D92A03AB107D9F7EC
:1011000018E0C2E6D8E000E006C021970109802F70
:10111000FE010E94C166C136D10780E00807A9F729
:101120000E94C3510C94BB700C9400000895815030
:10113000823108F05AC0E82FF0E08827ED55F74FCC
:101140008F4F0C94C166C308C708B508BB08BF0819
:10115000F508CA08D008D408DA08DE08E208E8086A
:10116000EC08F508F008F608FA08809180008F77FF
:10117000809380000895809180008F7DF9CF8091C9
:101180008000877FF5CF84B58F7784BD089584B5BF
:101190008F7DFBCF8091B0008F778093B000089552
:1011A0008091B0008F7DF9CF809190008F778093F0
:1011B00090000895809190008F7DF9CF80919000EC
:1011C000877FF5CF8091A0008F778093A00008954E
:1011D0008091A0008F7DF9CF8091A000877FF5CF0F
:1011E000809120018F7780932001089580912001C4
:1011F0008F7DF9CF80912001877FF5CF1F93CF930B
:10120000DF93282F30E0F901EA58FF4E8491F9016D
:10121000E05DFF4ED491F901E651F04FC491CC232B
:10122000A9F0162F81110E949708EC2FF0E0EE0F25
:10123000FF1FE053F04FA591B4918FB7F894EC9154
:10124000111108C0D095DE23DC938FBFDF91CF91C1
:101250001F910895DE2BF8CFCF93DF9390E0FC0130
:10126000E05DFF4E24918651904FFC0184918823CC
:10127000D1F090E0880F991FFC01EA54F04FA5913E
:10128000B491FC01E053F04FC591D49161110EC0AF
:101290009FB7F8948C91E22FE0958E238C93288150
:1012A000E223E8839FBFDF91CF9108958FB7F89431
:1012B000EC91E22BEC938FBFF6CF3FB7F89480917F
:1012C000D2079091D307A091D407B091D50726B546
:1012D000A89B05C02F3F19F00196A11DB11D3FBF6E
:1012E000BA2FA92F982F8827BC01CD01620F711D3D
:1012F000811D911D42E0660F771F881F991F4A9537
:10130000D1F708958F929F92AF92BF92CF92DF92C2
:10131000EF92FF924B015C010E945D096B017C0121
:101320000E945D096C197D098E099F09683E734012
:1013300081059105A8F321E0821A9108A108B1085E
:1013400088EEC80E83E0D81EE11CF11C81149104C4
:10135000A104B10429F7FF90EF90DF90CF90BF90E8
:10136000AF909F908F9008952FB7F8946091CE071B
:101370007091CF078091D0079091D1072FBF08952A
:1013800008950895DB0114964D915C9115976D9128
:101390007C91DC01ED91FC910280F381E02D1994A8
:1013A000EF92FF920F931F93CF93DF938C017B01FA
:1013B000D0E0C0E0F701EC0FFD1F6491662361F0FF
:1013C000D801ED91FC910190F081E02DC8011995B3
:1013D000892B11F02196EECFCE01DF91CF911F9195
:1013E0000F91FF90EF900895AF92BF92CF92DF924E
:1013F000EF92FF920F931F93CF93DF936C017B01CA
:101400008B01040F151FEB015E01AE18BF08C0175A
:10141000D10759F06991D601ED91FC910190F081CD
:10142000E02DC6011995892B79F7C501DF91CF9180
:101430001F910F91FF90EF90DF90CF90BF90AF90F2
:101440000895FC01538D448D252F30E0842F90E0CA
:10145000821B930B541710F0CF96089501970895AF
:10146000FC01918D828D981761F0A28DAE0FBF2F78
:10147000B11D5D968C91928D9F5F9F73928F90E0CE
:1014800008958FEF9FEF0895FC01918D828D98173D
:1014900031F0828DE80FF11D858D90E008958FEF7A
:1014A0009FEF0895FC01918D228D892F90E0805C43
:1014B0009F4F821B91098F73992708958BED97E0B9
:1014C0000E94520A21E0892B09F420E0822F08951E
:1014D000FC01A48DA80FB92FB11DA35ABF4F2C91A9
:1014E000848D90E001968F739927848FA689B789A0
:1014F0002C93A089B1898C91837080648C93938D97
:10150000848D981306C00288F389E02D80818F7D39
:1015100080830895EF92FF920F931F93CF93DF93F1
:10152000EC0181E0888F9B8D8C8D98131AC0E8891F
:10153000F989808185FF15C09FB7F894EE89FF89EE
:101540006083E889F98980818370806480839FBF8C
:1015500081E090E0DF91CF911F910F91FF90EF908C
:101560000895F62E0B8D10E00F5F1F4F0F7311279C
:10157000E02E8C8D8E110CC00FB607FCFACFE889D7
:10158000F989808185FFF5CFCE010E94680AF1CFED
:10159000EB8DEC0FFD2FF11DE35AFF4FF0829FB74B
:1015A000F8940B8FEA89FB8980818062CFCFCF933B
:1015B000DF93EC01888D8823B9F0AA89BB89E8897B
:1015C000F9898C9185FD03C0808186FD0DC00FB621
:1015D00007FCF7CF8C9185FFF2CF808185FFEDCF9F
:1015E000CE010E94680AE9CFDF91CF91089580E093
:1015F00090E0892B29F00E945E0A81110E94000070
:1016000080E090E0892B49F080E090E0892B29F080
:101610000E94000081110E94000080E090E0892B70
:1016200049F080E090E0892B29F00E9400008111B0
:101630000E94000080E090E0892B49F080E090E07B
:10164000892B29F00E94000081110C94000008955C
:101650002F923F924F925F926F927F928F929F92C2
:10166000AF92BF92CF92DF92EF92FF920F931F93B0
:10167000CF93DF93611571058105910509F492C03F
:101680009B01AC01222757FD23953327442755277B
:101690006B017C01F7FE08C0F094E094D094C094F4
:1016A000C11CD11CE11CF11CD6019927882700E13F
:1016B0000097A105F1E0BF0728F4BC2DAA279927C0
:1016C000882708E18B2F9927AA27BB278E599D4F82
:1016D0000B5EFC019080900E30E040E050E060E056
:1016E00070E080E090E00FE30E943268122F232E1A
:1016F000342E452E562E672E782E892E9601A70160
:1017000060E070E080E090E0092D0E9432685901AD
:101710006A017B01082FE92F212F322D432D542DF3
:10172000652D762D872D982D1E2F0E946868722EAC
:10173000832ED42FC52FB62FA72FF82FE92F42E3E2
:1017400054E04919510997FC5395952F990F990B1E
:101750009A01492F592F692F792F892F04E30E946D
:10176000326859016A017B018C01272D382D4D2FDC
:101770005C2F6B2F7A2F8F2F9E2F0E946868DF912E
:10178000CF911F910F91FF90EF90DF90CF90BF907E
:10179000AF909F908F907F906F905F904F903F9011
:1017A0002F90089520E030E040E050E060E070E0ED
:1017B00080E090E0E4CF9091D607892B8093D60704
:1017C00008955F926F927F928F929F92AF92BF9295
:1017D000CF92DF92EF92FF920F931F93CF93DF93FD
:1017E000722E132FD42FC52FB62FF72FA82FE92F26
:1017F000602E0FE30E944D68522E272D312F4D2F62
:101800005C2F6B2F7F2F8A2F9E2F04E30E944D6841
:10181000490187E09822E72D312F4D2F5C2F6B2F48
:101820007F2FAF70DA2EA0E08114910411F068943C
:10183000D4F88CE294E07C01E818F9081E141F0427
:101840005CF58FE3E816F1040CF070C0AA24BB2409
:10185000AE18BF088FE3A822BB24272D312F4D2FB0
:101860005C2F6B2F7F2F8D2D90E00A2D0E94326808
:10187000E1E0A0E00E948F6809F4E0E0272D312F1D
:101880004D2F5C2F6B2F7F2F8D2D90E00E2D0E9402
:101890004D68E22BD82EA92F2E2F8D2D9A2FA0E444
:1018A0000E947168D22EE32EF42E152FD62FC72F4B
:1018B000B82FF92F607820E030E040E050E07C2F36
:1018C0008B2F9F2FA0E00E948F6809F045C02D2D1F
:1018D0003E2D4F2D512F6D2F07E00E944D68B32FE5
:1018E000A42FF52F622F7B2F8A2F9F2F552029F0B1
:1018F000611571058105910579F5662039F0EF775D
:1019000029F02091D60721602093D607DF91CF914F
:101910001F910F91FF90EF90DF90CF90BF90AF900D
:101920009F908F907F906F905F900895E1E0272DBA
:10193000312F4D2F5C2F6B2F7F2F8D2D90E0A0E04E
:101940000E948F6809F4E0E030E040E050E060E0A1
:1019500070E0D12CA0E0A0CF80E10E94DB0B6FEF04
:101960007FEFCB01D3CF2F923F924F925F926F9236
:101970007F928F929F92AF92BF92CF92DF92EF921F
:10198000FF920F931F93CF93DF93CDB7DEB76D9781
:101990000FB6F894DEBF0FBECDBF49015A013B011F
:1019A000582E492E0F8B0FE30E944D68122F940181
:1019B000A501B301852D942D04E30E944D682D8768
:1019C0003E874F87588B698B7A8B8B8B9C8BCD8412
:1019D000DE8427E0D222052D0F70C114D10409F056
:1019E0000061E3E3F4E0EC19FD0919861A861B8611
:1019F0001C861E161F060CF4EAC0E53F3FEFF307F6
:101A00000CF048C080E10E94DB0B9401A501B301FA
:101A1000852D942DA0E00E948F680CF0CAC08FEF36
:101A2000C81687E0D80661F4802F90E021153105B3
:101A300041055105610571058041910509F0B9C065
:101A4000D12CF12CA12CB0E0F0E0E0E0B12C40E88A
:101A5000C42E2D2D3F2D4A2D5B2F6F2F7E2F8B2DCA
:101A60009C2D6D960FB6F894DEBF0FBECDBFDF91F3
:101A7000CF911F910F91FF90EF90DF90CF90BF908B
:101A8000AF909F908F907F906F905F904F903F901E
:101A90002F900895F195E195F1099401A501B30105
:101AA000802F90E00E2F0E943268B22FA32FF42FC8
:101AB000E52F00E20E944D6829833A834B835C83C3
:101AC0009D01CF013D832E839F83888782E090E034
:101AD000111102C083E090E049855A856B857C85B1
:101AE000FF88F816190629F4A1E0452B462B472B51
:101AF00009F4A0E089809A80AB80BC809401A501A4
:101B000060E070E080E090E000E20E9432684D808A
:101B10005E806F807884D22ED428F32EF528042F8F
:101B20000629B52FB729F62FE72FB82EC92EAA23DD
:101B300099F02D2D3F2D402F5B2FA1E00E94716861
:101B4000D22EF32E042FB52FF62FE72FB82EC92E45
:101B5000A0E00E948F6841F1112391F02D2D3F2DBF
:101B6000402F5B2F6F2F7E2F8B2D9C2D0E94EB67BC
:101B7000D22EF32E042FB52FF62FE72FB82EC92E15
:101B8000A02E2D2D3F2D402F5B2F6F2F7E2F8B2DC5
:101B90009C2DA0E00E948F6809F45BCF0FE30E94A8
:101BA0004D68121709F455CF80E10E94DB0B11112B
:101BB00047CFDD24DA94FF24FA94AA24AA94BFEF35
:101BC000FFEFEFEFBB24BA948FE7C82E42CF94010A
:101BD000A501B301802F90E000E20E944D682983A7
:101BE0003A834B835C838D829E82AF82B8862F01BD
:101BF000FF0F6608770835E076946794579447940A
:101C00003A95D1F7411451046104710409F4B9C043
:101C1000B301A201B4E04B1651046104710420F039
:101C200043E050E060E070E0842FA3E0B0E0A41B4C
:101C3000B50BAA0FBB1FAA0FBB1FEE24E394F12C18
:101C4000EC0EFD1EAE0DBF1D8D909D90AD90BD9014
:101C500081149104A104B10411F48150A9F723E087
:101C6000421651046104710408F0D7C0EF7183E09B
:101C7000841BEE2309F4B2C06A01CC0CDD1CCC0C31
:101C8000DD1CA1E0B0E0AC0FBD1FAC0DBD1DBE87DB
:101C9000AD870E2F0195282F30E0D9011197AA0F9B
:101CA000BB1FAA0FBB1FEE24E394F12CEC0EFD1E0C
:101CB000AE0DBF1D8D919D910D90BC91A02DEE2E6E
:101CC000F12CFE8AED8A2C013D010E2E04C0769483
:101CD0006794579447940A94D2F77301620104C041
:101CE000CC0CDD1CEE1CFF1CEA95D2F78C159D0573
:101CF000AE05BF0511F0689440F83D8F2C8F190197
:101D0000220C331C220C331C30E020E00F718C8D30
:101D10009D8D01979D8F8C8F24503109892BC1F1A6
:101D2000F101E20FF31FDF011497EE24E394F12C8D
:101D3000EC0EFD1EAE0DBF1DCD90DD90ED90FC9024
:101D40008D859E85E80FF91FD701C601002E04C0BE
:101D5000880F991FAA1FBB1F0A94D2F7482A592A35
:101D60006A2A7B2A4082518262827382260137016D
:101D70000D8804C076946794579447940A94D2F7D8
:101D8000C6CF812C912C540140E050E0BA016ECFB7
:101D9000AD85BE854D925D926D927C9213974115F3
:101DA00051056105710559F0FE01319611921192AC
:101DB000119211924150510961097109B9F78928AD
:101DC0008A288B2809F482CE89859A85AB85BC85C3
:101DD000816089879A87AB87BC8778CEE2E0F0E4A0
:101DE000E41BF50BEE0FFF1FEE0FFF1F3496EE24E2
:101DF000E394F12CEC0EFD1EEE0DFF1DDE01199695
:101E000072906290529042904D925D926D927C924F
:101E1000139714978150A1F7C7CF43E050E060E0DB
:101E200070E0C2CF2F923F924F925F926F927F925B
:101E30008F929F92AF92BF92CF92DF92EF92FF92DA
:101E40000F931F93CF93DF9300D000D0CDB7DEB7B1
:101E5000382EFB012701380149015A01A7015370AF
:101E60005D834C836D3F57E0750708F4AAC077FF88
:101E70006BC06F3F760709F04EC09701A801B4010F
:101E8000C5013E5F4F4F5F4F6F4F7F4F8F4F9F4F4B
:101E900020953095409550956095709580959095DA
:101EA0000FE30E944D68B22F9201A301B401C50156
:101EB0008F010F7311270E943268A1E0A983A0E06F
:101EC0000E948F6809F41982002711270E1B1F0B2F
:101ED0009201A301B401C5010E944D684980422AC4
:101EE000532E3A014B015C01A20153705D834C8378
:101EF000BB2309F464C0F0E0E0E0452B09F466C0C0
:101F000082E00E94DB0BF0E0E0E08091D607816088
:101F10008093D6075BC0623C7F4F14F0B1E0C4CF22
:101F2000E1E09701A801B401C501A0E00E948F681B
:101F300009F4E0E04E2E512C612C712C812C912C57
:101F4000A12CB12CB1E0D0CF6D3F774079F497014F
:101F5000A801B401C5013E5F4F4F5F4F6F4F7F4FE8
:101F60008F4F9F4FA0E00E948F685CF585E00E9434
:101F7000DB0B232D30E040E050E060E070E080E0DB
:101F800090E00FE30E9432688051904826960FB689
:101F9000F894DEBF0FBECDBFDF91CF911F910F919F
:101FA000FF90EF90DF90CF90BF90AF909F908F9079
:101FB0007F906F905F904F903F902F900895F0E04A
:101FC000E0E08C819D81892B09F09FCF9201A301D4
:101FD000B401C5013E5F4F4F5F4F6F4F7F4F8F4F33
:101FE0009F4F0AE00E944D68B32E6A017B01B82F13
:101FF000192F81E04C815D814115524009F080E04C
:10200000A82EA094A222232D30E040E050E060E012
:1020100070E080E090E00FE30E94326829013A010D
:10202000862E79838A839B839501A601B7018B2F26
:10203000912FA0E00E948F6841F19F2F990F990B7B
:102040009F01492F592F692F792F892F04E30E946F
:102050003268F22FE32FA42F352E262E972E8E8353
:102060009C839201A301682D79818A819B810B2F2A
:102070000E946868AF2EBE2ECA2ED32CE22CF92CFB
:102080000E811C810E94686881CFFA2DEB2DAC2D4A
:102090003D2C2E2C9F2CBE831C83E3CF2F923F928E
:1020A0004F925F926F927F928F929F92AF92BF9268
:1020B000CF92DF92EF92FF920F931F93CF93DF9314
:1020C000CDB7DEB761970FB6F894DEBF0FBECDBFB8
:1020D000522E632E742E852E962E798B99833A2C50
:1020E000B886C986DA86EB86FC861D879F779E8731
:1020F000F12C912F9F779F8710E0482E689443F82A
:10210000AA82BB82CC82DD82EE828C858F830860BE
:10211000088B2D84F11002C0112389F080E10E9408
:10212000DB0BFF20E9F111110AC05A826B827C821D
:102130008D829E8299899F83488A298031C0252D6E
:10214000362D472D582D692D7989842D9E85A32CF8
:10215000B884C984DA84EB84FC8408891F850E94D2
:102160008668F0F00E94866809F0D8F5232D3B2D93
:10217000A601B701802F9D85A52CB62CC72CD82C85
:10218000E92CF988042D19810E94866849F040F0F5
:102190005A826B827C828D829E82FF82488A212EA7
:1021A0002A813B814C815D816E817F818889922D5E
:1021B00061960FB6F894DEBF0FBECDBFDF91CF9111
:1021C0001F910F91FF90EF90DF90CF90BF90AF9055
:1021D0009F908F907F906F905F904F903F902F9047
:1021E00008955A826B827C828D829E8289898F8338
:1021F000A3CFAF92BF92CF92DF92EF92FF920F9355
:102200001F93CF93DF93FC01F02ED22FC32FB42E58
:10221000C52ED62EE72E202F312F4D2F5C2F6B2D64
:102220007C2D8D2D9E2D00E20E944D68A22E032F45
:102230008A2D902FA42FB52F00E00097A105B1059E
:1022400031F49E018F2D912FA32FB22F00E2009722
:1022500021E0A207B10520F4005FDC01992788275F
:102260000097A10521E0B20728F4085FBA2FA92F33
:10227000982F88278B2F9927AA27BB278E599D4FE8
:102280000B50DC018C91080F81E090E0801B9109DC
:1022900007FD9395918380832F2D312F4D2F5C2F38
:1022A0006B2D7C2D8D2D9E2D0E94326822833383D1
:1022B000448355836683778380879187CF01DF913D
:1022C000CF911F910F91FF90EF90DF90CF90BF9033
:1022D000AF9008952F923F924F925F926F927F92AC
:1022E0008F929F92AF92BF92CF92DF92EF92FF9226
:1022F0000F931F93CF93DF93CDB7DEB7E6970FB65B
:10230000F894DEBF0FBECDBF722E832E942EB52F54
:10231000F62FE72F88A39E8B0D8B04E30E944D6858
:102320002B873C874B845C8407E050227F8A888E11
:10233000998EBA8FFB8BEC8B88A18F70682E1B8EC9
:102340009501A601B7018D89912F04E30E944D6884
:102350002B873C874D875E876F87788B898B9A8B1D
:102360002B843C8497E03922AC8EBD8ECE8EDF8EDE
:10237000EAA2FBA20D890F700B871CA2272D382D16
:10238000492D5B2F6F2F7E2F88A19E890FE30E941E
:102390004D68A22F9501A601B7018D89912F0E944A
:1023A0004D68A227A9A78FEF481687E05806E9F5E0
:1023B000272D382D492D5B2F6F2F7E2F862D90E0F6
:1023C000A0E00E948F6809F02BC29FEF291697E0CA
:1023D000390649F49501A601B7018B8590E00E946A
:1023E0008F6809F01DC2932D990F990B2A2D222970
:1023F0003B2D3329492F4C29592F5D29692F6E29EF
:10240000792F7F298B85892BA0E00E948F6809F0A6
:1024100013C280E10E94DB0B20E030E040E050E09E
:1024200060E070E088EF9FEFD3C10FEF201607E068
:102430003006E1F49501A601B7018B8590E0A0E09C
:102440000E948F6809F0ECC1952D990F990B272DEB
:102450002429382D3529492F4929592F5B2B692FDC
:102460006F2B792F7E2B892F8629CECF41145104D3
:1024700039F52F89388D498D5A8D6B897C89862D48
:1024800090E0A0E00E948F6809F4E4C189019A01FC
:10249000AB01662D70E0CE0101960E94F9104980D3
:1024A0005A808B818F8B9C81988FED81E98F0E8173
:1024B0000A8F8F818B8B98859C8B6984EA85EB8F43
:1024C0002114310429F59501A601B7018B8590E00F
:1024D000A0E00E948F6809F4BDC185019601A701A3
:1024E000682F70E0CE0101960E94F91029803A8091
:1024F0000B810C8F8C818D8F9D819E8FEE81EF8F54
:102500000F810AA388858BA399859B87EA85ECA315
:10251000C201820D931D99A388A32F89388D498DFF
:102520005A8D6B897C89862D9B8D0AE00E943268CA
:1025300039014A01B62FA72FF82FE92F2C8D3D8D99
:102540004E8D5F8D6AA17BA18B859CA10BE00E94C3
:10255000326819012A01D62EE72EF82E192F930181
:10256000A4016B2F7A2F8F2F9E2F00E20E944D68BF
:102570002D8B3E8B4B8F6C8F7D8F8E8F9F8F5064FA
:102580005B8B9101A2016D2D7E2D8F2D912F0E94CD
:102590004D682AA33BA34CA36DA37EA38FA398A74A
:1025A00050685C8B51016201E12CF12C00E010E0DD
:1025B0009301A40160E070E080E090E00E94D866A2
:1025C0002EA73FA748AB59AB6AAB7BAB8CAB9DAB9F
:1025D0002D893E894B8D5B896C8D7D8D8E8D9F8D78
:1025E0000E94D86619012A016AA77BA78CA79DA71C
:1025F000AAA0BBA0CCA0DC88EDA0FEA00FA118A5CE
:102600009301A40160E070E080E090E00E94D86651
:1026100051016201EAA4FBA40CA51DA50E946868F3
:102620002B873F8B488F598F6A8F672E782E892E84
:10263000AAA0BBA0CCA0DC88EDA0FEA00FA118A58D
:102640002D893E894B8D5B896C8D7D8D8E8D9F8D07
:102650000E94D8662AA33BA34CA35DA36EA37FA3CD
:1026600088A79EAB9101A2016AA57BA58CA59DA51B
:10267000AB84BF88C88CD98CEA8CF62C072D182D1A
:102680000E94866809F008F4BCC0E1E0EB8B2B8562
:102690003F89488D598D6A8D762D872D982D00E2C2
:1026A0000E94326819012A016C8B7D8B8E8B9B8F67
:1026B0002EA53FA548A959A96AA97BA98CA99DA9BE
:1026C00051016201EC88FD880E891B8D0E946868AB
:1026D000922EA32FF42FE52F6C8F7D8F8E8F9F8FDF
:1026E000B1E09101A201B701C801A92CBA2ECF2EE9
:1026F000DE2EEC8CFD8C0E8D1F8D0E94866809F0FD
:1027000008F4B0E02B2F30E040E050E060E070E0F3
:1027100080E090E0AAA0BBA0CCA0DDA0EEA0FFA02E
:1027200008A51EA90E94686859016A017B01B82F9B
:10273000192F2B853F89488D598D6A8D762D872DD0
:10274000982D00E20E944D680B89602B0B2F0E9490
:1027500068687901C42E152FD62EB72F5C01292D5C
:102760003A2F4F2F5E2F6C8D7D8D8E8D9F8D00E2C9
:102770000E944D6829013A0145284628472841F41E
:10278000492D5A2F6F2F7E2F452B462B472B11F0AB
:102790006894E0F897014C2D512F6D2D7B2FC501CA
:1027A0002F3FEFEF3E074E075E076E077E078E074F
:1027B000EFE39E0741F138F1E8A1F9A1EF5FF340A3
:1027C0000C2D2D2D3B2FA501BF0189A50E94120FB5
:1027D000E6960FB6F894DEBF0FBECDBFDF91CF9166
:1027E0001F910F91FF90EF90DF90CF90BF90AF902F
:1027F0009F908F907F906F905F904F903F902F9021
:1028000008951B8A44CFE8A1F9A1F45001E00E9489
:1028100032687901C42E152FD62EB72F5C01D0CF88
:102820000D89272D382D492D5B2F6F2F7E2F88A1E5
:102830009E890E944E10CCCF29A530E040E050E0A8
:1028400060E070E080E090E00FE30E943268805129
:102850009048BECF29A530E040E050E060E070E055
:1028600080E090E00FE30E943268B2CF2F923F9257
:102870004F925F926F927F928F929F92AF92BF9290
:10288000CF92DF92EF92FF920F931F93CF93DF933C
:10289000CDB7DEB7E9970FB6F894DEBF0FBECDBF58
:1028A00029013A014B01FC01B02F04E30E944D685D
:1028B0002B873C872B843C8407E030224EA25FA20A
:1028C00068A679A68AA69BA62E2F2F702B8B1CA6F6
:1028D0009501A601B7018B2F912F04E30E944D684B
:1028E0002B873C874B855C8557705C874B87ADA6F3
:1028F000BBA2CCA2DDA2EEA6FFA65B2F5F705B8F12
:102900001CAA9201A301B401CF010FE30E944D68FC
:10291000A22F9501A601B7018B2F912F0E944D6820
:10292000A227ADAB6FEF261667E0360631F59201B0
:10293000A301B4018B8990E0A0E00E948F6809F0A8
:1029400012C38B859C858F3F974009F057C0950136
:10295000A601B7018B8D90E0A0E00E948F6809F07E
:1029600002C380E10E94DB0B20E030E040E050E059
:1029700060E070E088EF9FEFC8C22B853C852F3F59
:102980003740B1F49501A601B7018B8D90E0A0E02E
:102990000E948F6809F0E7C22DA930E040E050E0C6
:1029A00060E070E080E090E00FE30E943268ADC22A
:1029B0006B857C85672B09F04FC09501A601B70197
:1029C0008B8D90E0A0E00E948F6831F5932D990FD8
:1029D000990B242D2229352D3329492F4629592F8A
:1029E0005729692F6829792F79298B89892B0E948A
:1029F0008F6809F4B6CF88E00E94DB0B2DA930E088
:102A000040E050E060E070E080E090E00FE30E9482
:102A100032688051904879C20DA51BA12CA13DA11F
:102A20004EA55FA56B8D70E0CE0101960E94F91056
:102A3000A980BA80BC86AB86BB80BDA6CC80CBA269
:102A4000DD80DCA2EE80EDA2FF80FEA608850FA748
:102A5000A984AB8EBA84BCAA2114310429F5920151
:102A6000A301B4018B8990E0A0E00E948F6809F473
:102A700093CF82019301A401682F70E0CE010196EB
:102A80000E94F91029803A80CB80CEA2DC80DFA2A0
:102A9000ED80E8A6FE80F9A60F810AA718851BA77E
:102AA000A984AB8ABA84BCA6D101CB84DC84AC19DE
:102AB000BD09EB89E061FB8DF0612EA13FA148A526
:102AC00059A56AA57BA58E2F9CA5ADA4BBA0CCA0C3
:102AD000DDA0EEA4FFA40F2F1CA90E94866808F0B9
:102AE0002DC28D0103501C4F1FAB0EAB0BE00E949B
:102AF0003268922E832E742E652E68AB79AB8AAB2A
:102B00009BAB2DA53BA14CA15DA16EA57FA58F2FF1
:102B10009CA90BE00E9432682B873C874D875E871B
:102B20006F87788B898B9A8B00E20E944D682EA369
:102B30003FA348A759A76AA77BA78CA79DA7C90150
:102B4000DA01A901BD012BE1769567955795479567
:102B50002A95D1F74F705527BA01660F771FFB01F1
:102B6000EE5BFD4F4BE0B695A795979587954A95F7
:102B7000D1F79C01AD0144275527DB01AE5DBD4F68
:102B80000D90BC91A02D0E949B6254E19695879573
:102B9000779567955A95D1F720803180261A370AA4
:102BA000AEA0BFA0C8A4D9A4EAA4FBA40CA51DA5EF
:102BB000910140E050E060E070E080E090E00E9431
:102BC000D86607E00E944D687A016901C094D094EC
:102BD000E094F094512C412CC201B101A70196015F
:102BE0000E94306708E10E944D682B8B3C8B4D8B17
:102BF0005E8B2101332422244B895C896D897E8977
:102C0000240E351E461E571EC701B601A7019601A8
:102C10000E94306700E20E944D6862015101E12C80
:102C2000F12C87012B8ABC8A4D8ADE8AEF8AF88EC6
:102C3000098F1A8FE12CF12C00E010E00E94D86679
:102C400000E30E944D6859016A0122E0221A31080E
:102C5000410851082A0C3B1C4C1C5D1CB201A1010F
:102C600080E090E0DC012B8A5C8B4D8A7E8B8F8B21
:102C7000988FA98FBA8F292D382D472D562D68A9E9
:102C800079A98AA99BA900E20E944D68AB88BC88FB
:102C9000CD88DE88E12CF12C00E010E00E94D8669F
:102CA0006BA37CA38DA399AF00E20E944D6819012C
:102CB0002A01220C331C441C551C6B857C858D8598
:102CC0009E85E4E09695879577956795EA95D1F787
:102CD0006B877C878D879E8762015101E12CF12CE7
:102CE00087012B8EBC8E4D8EDE8EEF8EF8A209A34F
:102CF0001AA3AEA0BFA0C8A4D9A4EAA4FBA40CA5A3
:102D00001DA52B8D3C8D4D8D5E8D60E070E080E0CB
:102D100090E00E94D86659016A017B018C01292D3F
:102D2000382D472D562D68A979A98AA99BA90E94FB
:102D30007D680CE10E94326879018A013B014C01F7
:102D4000C201B1012B853C854D855E850E943067AF
:102D500059016A01B62FA72FF82FE92F9701A80173
:102D6000B301C401EB2EFA2E0F2F1E2F0E947D6897
:102D70002EA73FA748AB59AB6AAB7BAB8CAB98AFE8
:102D800000E20E944D68AB88BC88CD88DE88E12CCB
:102D9000F12C00E010E00E94D86600E20E944D682D
:102DA00029013A0104E0400E511C611C711C920182
:102DB000A30160E070E080E090E004E00E943268EF
:102DC00059016A017B018C0120E030E040E050E0D5
:102DD0006BA17CA18DA199AD0E946868922E832E73
:102DE0004B8F5BA36CA37DA31C013170292D40E0A8
:102DF00050E060E070E080E090E0AFE30E948F6818
:102E000011F008F076C0192D1078912E440C551C45
:102E1000661C771C20EF4222B301A20180E090E003
:102E2000DC014B8A5C8B6D8A7E8B8F8B988FA98F90
:102E3000BA8FAEA0BFA0C8A4D9A4EAA4FBA40CA5D5
:102E40001DA59201A30160E070E080E090E00E9487
:102E5000D86659016A017B018C012EA53FA548A9BE
:102E600059A96AA97BA98CA998AD0E947D680CE13B
:102E70000E9432682B8BA32EB42EC52ED62EE72EA1
:102E8000F82E192F6B857C858D859E85A301920177
:102E90000E943067522E632E742EB52FA62FF72F67
:102EA000082FE92F2B893A2D4B2D5C2D6D2D7E2D72
:102EB0008F2D912FA52CB62CC72CDB2EEA2EFF2EA2
:102EC0001E2F0E947D68A0E00E948F680CF044C015
:102ED000292D382D4B8D5BA16CA17DA1C101A0E8EE
:102EE0000E947168922E832E4B8F5BA36CA37DA3EF
:102EF0001C01E92CF82C0B8D1BA12CA13DA1A101DB
:102F00006EA97FA98DA90E94120FE9960FB6F894B9
:102F1000DEBF0FBECDBFDF91CF911F910F91FF900C
:102F2000EF90DF90CF90BF90AF909F908F907F9069
:102F30006F905F904F903F902F9008959D01225089
:102F40003C4F3FAB2EAB2EA13FA148A559A56AA58A
:102F50007BA59CA50AE0CBCDA0E00E948F6849F23A
:102F6000689490F8C6CF0B2F9201A301B401CF0152
:102F70000E944E10CACF2F923F924F925F926F9253
:102F80007F928F929F92AF92BF92CF92DF92EF92F9
:102F9000FF920F931F93CF93DF9300D000D000D008
:102FA000CDB7DEB7782E4B01E02F59014987F52FB9
:102FB0009701402F512FB50189859F2F00E20E9474
:102FC0004D68D22E032F942F852F4D2D502F692F12
:102FD000782F00E0411551056105710529F44E2D4A
:102FE0005F2D6E2F712F00E24115510521E0620720
:102FF000710520F4005FBA0155274427411551059A
:10300000610581E0780728F4085F762F652F542F3B
:103010004427472F5527662777274E595D4F015084
:10302000DA018C91080FC02E002E000CDD088C18E0
:103030009D080A300CF47AC0BDEF8B16B7E09B06F2
:1030400008F074C0272D30E040E050E060E070E010
:1030500080E090E00FE30E943268422E332E242E4F
:10306000B52F6A837B838C839D8397014E2F512FCD
:10307000B50189859F2FA0E00E948F6809F44DC09B
:10308000992D990F990B9401492F592F692F792F59
:10309000892F04E30E943268922E38874E83A52F31
:1030A000862E772E682E592E2AE0C21AD108970153
:1030B0004E2F512FB50189859F2F0C2D0E9432680C
:1030C000A42CB32CC22CDB2EEA80FB800C811D814A
:1030D0000E946868A92CB884CE80DA2EE82CF72CE0
:1030E000062D152D0E94686829960FB6F894DEBF4C
:1030F0000FBECDBFDF91CF911F910F91FF90EF9049
:10310000DF90CF90BF90AF909F908F907F906F9007
:103110005F904F903F902F9008959E2CF886EE83FD
:10312000A12F8A2C7B2C69845F2EBECF9F2F89858F
:10313000B501512F4E2F97010E94326879018A0103
:103140009B01AC01B401872D0E94120FCDCF6F926D
:103150007F928F929F92AF92BF92CF92DF92EF9227
:10316000FF920F931F93CF93DF937901A42F152F15
:10317000F62FE72FC82FB92F0FE30E944D68622E5C
:103180000A2F7E2C8F2C9A2EA12EBF2ECE2EDC2E17
:10319000DB2FDF772E2D3F2D4A2F512F6F2F7E2FC4
:1031A0008C2F9D2FA0E00E948F6811F5662049F0BA
:1031B000712C812C912CA12CB12CC12C80EED82EFD
:1031C000D3EC272D382D492D5A2D6B2D7C2D8D2D8F
:1031D0009D2FDF91CF911F910F91FF90EF90DF9086
:1031E000CF90BF90AF909F908F907F906F900895F9
:1031F000662059F09701A8019B2F0E94EB67790187
:103200008A01F62FE72FC82FB92F862D2F2F3E2F9B
:103210004C2F5B2F6CE374E00E94BB17DACF2F9228
:103220003F924F925F926F927F928F929F92AF9256
:10323000BF92CF92DF92EF92FF920F931F93CF93A3
:10324000DF93CDB7DEB7AC970FB6F894DEBF0FBEF5
:10325000CDBF29013A01962EB72FF82FE92F0AA7E3
:103260008E8E04E30E944D6829833A8329813A8136
:1032700037703A8329839501A601B7018AA5912F5A
:103280000E944D6829873A8749855A8557705A8721
:10329000498789819A81841B950B9C8B8B8B92012A
:1032A000A301692D7B2F8F2F9E2F0AE00E94326889
:1032B0003BA74D8B5E8B6F8B788F898F9CA71F8E62
:1032C0003C7F3A8B48A359A36AA37BA38CA39F732B
:1032D000998B9501A601B7018AA5912F0E943268AA
:1032E0004A8F5B8F6C8F7D8F282E1DA2232F2C7F02
:1032F000322E4EA35FA368A779A7A82F492F4F733B
:10330000842E4B895C89141615060CF428C1452BB4
:1033100009F05DC049815A814F3F574061F52BA5A7
:10332000322B4D895A8D452B5E898B8D582B6F8999
:103330002C8D622B788D8D8D782B2CA5922B3C7F3C
:1033400020E0898D82299F73A0E00E948F6809F098
:1033500018C180E10E94DB0B412C512C612C712C97
:10336000912CB0E0F8EFEFEF9201A301692D7B2FD4
:103370008F2F9E2FC2C0E981FA81EF2B31F4E1E05B
:10338000F0E0FA87E987FA83E98320E03A894D89FA
:103390005E896F89788D898D9989A12CB32CCA8C0F
:1033A000DB8CEC8CFD8C022D182D0E94866811F0B0
:1033B00008F03AC10E94866808F47AC0412C512C6A
:1033C000612C712C912CB0E0F0E0E0E0CDCF2985AC
:1033D0003A852F3F374011F520E0332D4A8D5B8D24
:1033E0006C8D7D8D982DA0E00E948F6809F0C9C07A
:1033F00021E0EE8D2E2730E040E050E060E070E00C
:1034000080E090E00FE30E943268805190482901EB
:103410003A01962EB72FF82FE92FA6CFE981FA812E
:10342000EF2B09F083C03A894D895E896F89788DC9
:10343000898D998920E0A12CBA88CD88DE88EF8813
:10344000F88C098D19890E94686829013A01962E25
:10345000B72FF82FE92F2B893C89223C3F4F0CF4E2
:103460006DC09201A3010B891C890F7311270E9463
:10347000326811E0A0E00E948F6809F410E0EB8848
:10348000FC88F194E194F1089201A301692D7B2F4E
:103490008F2F9E2F0E2D0E944D68122B1F8F3A8B5F
:1034A00048A359A36AA37BA38CA3998B689486F83D
:1034B00081E0EE8DE827EE8F20E0332D4A8D5B8D85
:1034C0006C8D7D8D822D982DAF8CBA88C8A0D9A027
:1034D000EAA0FBA00CA119890E947D68E985FA8504
:1034E000FA83E983E981FA81319779018A019B01A5
:1034F000AC01BF018E8D0E94BB17AC960FB6F8943D
:10350000DEBF0FBECDBFDF91CF911F910F91FF9016
:10351000EF90DF90CF90BF90AF909F908F907F9073
:103520006F905F904F903F902F90089530E040E073
:1035300050E060E070E080E090E47CCF11E0920128
:10354000A301A0E00E948F6809F410E01F8F1A8A7F
:1035500018A219A21AA21BA21CA2198AA7CF2981FC
:103560003A812F3F3740B9F420E03A894D895E898E
:103570006F89788D898D9989A0E00E948F6809F400
:10358000F3CE0AA59201A301692D7B2F8F2F9E2FC9
:103590000E944E103CCFE985FA85EF2B09F057C009
:1035A000332D4A8D5B8D6C8D7D8D982D20E0A12C67
:1035B000B32CCA8CDB8CEC8CFD8C022D182D0E9458
:1035C000686839014A01162FB72FF82FE92F2B8988
:1035D0003C892F3331050CF042C07901F194E1941C
:1035E000F1083FE3E322FF2493010E2D0E9432688D
:1035F00055245394A0E00E948F6809F4512C930144
:10360000A401612F7B2F8F2F9E2F0B890E944D6865
:10361000522A5DA2332E4EA35FA368A779A7A82FD5
:10362000892EE989E064E98B20E03A894D895E8939
:103630006F89788D898D9989ADA0B32CCEA0DFA03C
:10364000E8A4F9A40A2F182D0E947D684BCF30E022
:1036500040E050E060E070E080E090E4A7CF01E05F
:103660009301A0E00E948F6809F400E00DA3312CC3
:103670001EA21FA218A619A6A0E0812CD2CF2F92BD
:103680003F924F925F926F927F928F929F92AF92F2
:10369000BF92CF92DF92EF92FF920F931F93CF933F
:1036A000DF93CDB7DEB7AB970FB6F894DEBF0FBE92
:1036B000CDBF322E532E642E252E462E772E898B8B
:1036C000B92FCB8E0C8F8D8E04E30E944D68298319
:1036D0003A8349815A8157705A8349839501A601DB
:1036E000B7018C8D912F0E944D6829873A87898474
:1036F0009A8457E0952289819A81881999099A8735
:103700008987232D352D462D522D642D772D8989BE
:103710009B2F09E00E9432683AA7C42E5C8B6D8B08
:103720007E8BA82F9BA71E8EE32FEE7FEA8B4F8FF9
:1037300058A369A37AA38BA39F719B8B95014B8D93
:103740005D2DB7018C8D912F0E9432684F8B588F61
:10375000698F7A8F082F1CA2E32FEE7F4DA35EA303
:103760006FA378A789A7F92FFF7149855A85452B43
:1037700009F099C049815A814F3F574011F5EAA598
:103780003E2B4F894C295C89E88D5E2B6D89E98D34
:103790006E2B7E89EA8D7E2BEBA59E2B3E7F20E053
:1037A0008A2F802B9F71A0E00E948F6809F0BBC117
:1037B000232D352D462D522D642D772D89899B2F54
:1037C00059C049815A81452B99F5232D352D462D18
:1037D000522D642D772D89899B2FCB8C0C8D0E94C7
:1037E000686839014A01B62FA72FF82FE92FEF7724
:1037F0002D8D30E040E050E060E070E080E090E04F
:103800000FE30E94326859016A017B018C01930128
:10381000A4016B2F7A2F8F2F9E2F0E946868322E63
:10382000532E642E252E462E772E898BB92FC0CF8E
:1038300020E03E2F4F89588D698D7A8D802F9F2FE4
:10384000905CA12CBA88DC88ED88FE880A2F1B8941
:103850000E94686879018A01F62FD72EB82FA92F08
:1038600089809A802F2F3D2D4B2F5A2FB4018D8D9B
:103870000E94120FAB960FB6F894DEBF0FBECDBFFD
:10388000DF91CF911F910F91FF90EF90DF90CF903C
:10389000BF90AF909F908F907F906F905F904F9070
:1038A0003F902F90089589859A8597FFC6C09FEF16
:1038B000891697E09906D9F420E03E2F4F89588D5C
:1038C000698D7A8D802F9F2FA0E00E948F6809F06C
:1038D0002AC12D8D30E040E050E060E070E080E0F3
:1038E00090E00FE30E9432688051904898CF498160
:1038F0005A81452B09F082C03A894C2D5C896D892B
:103900007E898A2F9B8920E0A12CBA88DC88ED88EB
:10391000FE880A2F1B890E946868622EA32EB42E8F
:10392000C52ED62EE72EF82E192F89859A85823C32
:103930009F4F0CF46BC0262D3A2D4B2D5C2D6D2D19
:103940007E2D8F2D912F29843A84AFE32A223324B0
:10395000022D0E943268B1E0A0E00E948F6809F455
:10396000B0E029843A84319421943108262D3A2DEF
:103970004B2D5C2D6D2D7E2D8F2D912F022D0E94B4
:103980004D68B22BBE8F3A8B4F8F58A369A37AA391
:103990008BA39B8B2E8D3A894F8D58A169A17AA15B
:1039A0008BA19B89ACA0BE2ECDA0DEA0EFA0F8A479
:1039B00009A51F2F0E946868905E79018A01F62F81
:1039C000D72EB82FA92F2F3FEFEF3E074E075E07E8
:1039D0006E077E078E07EFE39E0711F008F042CFD7
:1039E00021E0821A91082E2D01E00E9432687901AF
:1039F0008A01F62FD72EB82FA92F34CF30E040E020
:103A000050E060E070E080E090E27DCFB1E0262DF4
:103A10003A2D4B2D5C2D6D2D7E2D8F2D912FA0E0FD
:103A20000E948F6809F4B0E0BE8F1A8A1F8E18A218
:103A300019A21AA21BA21B8AADCF49815A814F3FFE
:103A4000574049F420E03A894C2D5C896D897E8984
:103A50008A2F9B89A8CE892809F048C03E2F4F891C
:103A6000588D698D7A8D802F9F2F20E0A12CBE2E3E
:103A7000CF88D88CE98CFA8C1F2F0E946868690166
:103A80007A01162FB72FF82FE92F49855A854F3322
:103A90005105A4F55A01B194A194B1085FE3A522A0
:103AA000BB249601A701612F7B2F8F2F9E2F0A2DFC
:103AB0000E943268BB24B394A0E00E948F6809F48E
:103AC000B12C9601A701612F7B2F8F2F9E2F098587
:103AD0000E944D68B22ABCA2E32F4DA35EA36FA340
:103AE00078A789A7F92F89809A8054CF30E040E0E9
:103AF00050E060E070E080E090E2B7CF01E0960136
:103B0000A701612F7B2F8F2F9E2FA0E00E948F682F
:103B100009F400E00CA3E0E01DA21EA21FA218A65B
:103B200019A6F0E0E0CFCB8C0C8D232D352D462D42
:103B3000522D642D772D89899B2F0E944E106FCEB8
:103B40002F923F924F925F926F927F928F929F92AD
:103B5000AF92BF92CF92DF92EF92FF920F931F939B
:103B6000CF93DF9300D000D01F921F92CDB7DEB766
:103B700029013A014B011C011A830983EE82CB8291
:103B800018862C2D220F220B2F839201A301B40142
:103B9000C101A0E0E8850E2E000CFF0BFD83EC8335
:103BA0000E948F6879F429803A802E0E3F1E80E3B0
:103BB00038856E8136179CF53F5F3887D1018D932C
:103BC0001D01F6CFAB80BF80CB2CDB2CEB2CFB2C6C
:103BD0000B2D1B2D0E945B6780E3820F8A3314F04C
:103BE00087E3820FF885FF5FF887E981FA812C81EE
:103BF0003D81E20FF31F8083AB80BF80CB2CDB2C99
:103C0000EB2CFB2C0B2D1B2D9201A301B401C10148
:103C10000E945D6729013A014B011C01B6CFB885AE
:103C20008B2FBB0F990BE981FA81AF01480F591F08
:103C300030E020E03C0161E0661A7108B301621BCC
:103C4000730B2617370784F4619141505109DA014B
:103C50007C914F01B1E08B1A9108D4017C93DA0179
:103C60006C932F5F3F4FEACFF101108228960FB679
:103C7000F894DEBF0FBECDBFDF91CF911F910F91A2
:103C8000FF90EF90DF90CF90BF90AF909F908F907C
:103C90007F906F905F904F903F902F900895FC0120
:103CA0002281338144815581668177818085918528
:103CB00008953F924F925F926F927F928F929F9260
:103CC000AF92BF92CF92DF92EF92FF920F931F932A
:103CD000CF93DF93FC014A015B0180E292E0918384
:103CE000808381149104A104B10409F46CC0DB0148
:103CF000CA0120E08114910431E0A306B10420F44C
:103D0000D4019927882720E10097A105C1E0BC07CD
:103D100028F4285FBA2FA92F982F88278B2F99274F
:103D2000AA27BB278E599D4F2B5EEC01A881A20FBD
:103D300042E354E04A1B5109A7FD5395952F990F73
:103D4000990B9A01492F592F692F792F892F04E355
:103D50000E943268322E432E542E652E762ED72F97
:103D6000C82FB92F9401A50160E070E080E090E0D9
:103D70000A2F0E94326859016A017B018C01232DB0
:103D8000342D452D562D672D7D2F8C2F9B2F0E9476
:103D9000686822833383448355836683778380876F
:103DA0009187DF91CF911F910F91FF90EF90DF905E
:103DB000CF90BF90AF909F908F907F906F905F90CB
:103DC0004F903F90089520E030E040E050E060E008
:103DD00070E080E090E0DDCFCF92DF92EF92FF9233
:103DE0000F931F93CF93DF93EC010E94B4096B01F3
:103DF0007C012F8530E0F901EA58FF4E8491F901EA
:103E0000E05DFF4E1491F901E651F04F049100235B
:103E100009F45EC081110E949708E02FF0E0EE0FD8
:103E2000FF1FE852F74FA591B491EC911E2331E0AA
:103E300020E009F430E0832F922F282F2170298B66
:103E40002889211104C021E082278170898B89890A
:103E50009A89891721F0CD8ADE8AEF8AF88E4D89FA
:103E60005E896F89788DC41AD50AE60AF70A4B81F4
:103E70005C816D817E814C155D056E057F0564F466
:103E80009A81891749F08A83882349F02B893C89D4
:103E90002F5F3F4F3C8B2B8B9A8191111CC04F8120
:103EA000588569857A854C155D056E057F0534F466
:103EB0002B893C89398328831C8A1B8A8A8BDF9152
:103EC000CF911F910F91FF90EF90DF90CF900895C9
:103ED00090E080E0B2CF4B855C856D857E854C158A
:103EE0005D056E057F0554F72B893C893195219539
:103EF0003109E0CF0895FC016370668B8481958160
:103F000026813781613039F0633029F091878087CD
:103F10003387228708953187208793878287089582
:103F20002F923F924F925F926F927F928F929F92C9
:103F3000AF92BF92CF92DF92EF92FF920F931F93B7
:103F4000CF93DF93CDB7DEB76A970FB6F894DEBF95
:103F50000FBECDBF9A8F898F7A8369834A01D22E93
:103F600018870F833701BC2CDC0159962D913C91A9
:103F70005A972115310509F015C118968D919C911C
:103F80001997681779070CF0D7C11A968D919C91F3
:103F9000481759070CF0D0C14C2C512CB6E0CB9EE1
:103FA000600D711D11247C876B87161617060CF0A7
:103FB000C3C1EA2DF0E0FA87E98793E0EE0FFF1F17
:103FC0009A95E1F7F88BEF87CF01840F951F1816AC
:103FD00019060CF0B1C1A98DBA8D58968C9181113A
:103FE00004C0BFEABD1508F4D394A98DBA8DED9134
:103FF000FC9111970284F385E02DCD011995B5E070
:10400000DB9EC0011124E981FA81FC83EB83312C12
:10401000212C9C0128523C4F388F2F8B4A2D50E089
:104020005E8B4D8BEF89F88DE20DF31D44919E82DE
:104030008D82D12CC12C69817A81620D731D7A8B9E
:10404000698B842F90E09C8B8B8BE98DFA8DA081FE
:10405000B18140FF82C0F1E0BF126FC0AF126DC0EE
:104060001C96ED91FC912F813885A4014C0D5D1DAE
:1040700069897A89898D9A8D1995EB89FC89F595DD
:10408000E7954E2F5FEFC51AD50A6D817E818D8928
:104090009E89680F791F7E836D8398E0C916D104CD
:1040A00081F6AFEF2A1A3A0AEB81FC81E40DF51D87
:1040B000FC83EB83F5E02F16310409F0B3CF2F8199
:1040C000388526153705B9F0A98DBA8DED91FC918B
:1040D000B1E0BB1257C0AB1255C069817A816B5FEA
:1040E0007F4F0088F189E02D830128E030E0A401B2
:1040F000898D9A8D1995A98DBA8DED91FC911197A5
:104100000688F789E02DCD016A960FB6F894DEBFD8
:104110000FBECDBFDF91CF911F910F91FF90EF9018
:10412000DF90CF90BF90AF909F908F907F906F90D7
:104130005F904F903F902F9019941E96ED91FC91B7
:10414000EF80F88409851A8592014D815E816B812B
:104150007C81898D9A8D199590CF2F813885261570
:10416000370509F48ACF31E0B31207C0A31205C0A6
:104170001C96ED91FC91930178CF1E96ED91FC91E8
:104180007301E0CF6B857C85641975090684F7851A
:10419000E02D73010F8518899201A401898D9A8DF4
:1041A0001995A9CFF901349694913297459154917C
:1041B000D91AB7E0DB9E400D511D1124F90125915C
:1041C00034913C8B2B8BFA0125903490FA01329676
:1041D000749031963491398B329664903196449034
:1041E00041E04C1518F04A1508F07FC0662D062CEA
:1041F000000C770B7C836B83842D042C000C990BB3
:104200009E838D83A98DBA8DED91FC9111970284C7
:10421000F385E02DCD011995512CD12CC12CEA2D1F
:10422000F0E0FA87E9872B2D30E03C872B87A4014B
:10423000440D511D47FC5A95588F4F8B69817A81E7
:10424000660D711D67FC7A957E876D877989C71623
:1042500008F051CF2C2D30E04D815E81420F531F6D
:10426000A985BA854A9FC0014B9F900D5A9F900D1A
:104270001124FC01E80DF91DF88BEF87852D612CC9
:104280004F89588D420F531F5E8B4D8B671408F07A
:1042900050C044244394480E877041F4C1010196F4
:1042A000EB89FC89E20DF31DD4901C01D7FE19C0E7
:1042B000A98DBA8DED91FC91662D70E0B1E0BB1235
:1042C00019C0AB1217C02D853E85620F731F048481
:1042D000F585E02D2F8138854D895E89898D9A8DF0
:1042E0001995DD0C6394842DD1CF1E821D821C8212
:1042F0001B8288CF4B815C81640F751FAB85BC85A9
:104300006A9FC0016B9F900D7A9F900D1124698167
:104310007A81680F791F0684F785E02DEF80F88495
:1043200009851A859D014F855889898D9A8D199522
:10433000D8CF570CC3948ACF6A960FB6F894DEBFD5
:104340000FBECDBFDF91CF911F910F91FF90EF90E6
:10435000DF90CF90BF90AF909F908F907F906F90A5
:104360005F904F903F902F9008958F929F92AF92C1
:10437000CF92EF92FF920F931F93CF93DF93EC01B5
:10438000262F898D9A8D009709F051C06A30D1F49B
:104390001D861C868D8948E0849F900111248E859E
:1043A0009F85820F931F9F878E8781E090E0DF912A
:1043B000CF911F910F91FF90EF90CF90AF909F9072
:1043C0008F9008956D3089F3CC88AD888F898823CC
:1043D000C1F08C859D8536E0C39E800D911D112412
:1043E000488559854817590764F44E855F851D86B1
:1043F0001C8638E0A39EC0011124840F951F9F875F
:104400008E87EA88FB88088919894E855F856C85C7
:104410007D85CE010E94901F2C898C859D8546E06C
:10442000249F800D911D11249D878C87BECF6A30FB
:1044300069F41D861C86FC013696E4912D898E85D3
:104440009F85E29F800D911D1124ADCF6D3009F441
:10445000ACCFFC0134963491631708F4A6CF3196A3
:10446000E491E61708F4A1CFFC0132968590949070
:10447000462F431B342F47E0349F800C911C11249E
:10448000F401329634913196E4913323A9F1EE236D
:1044900099F1CC88F4013596E491AD884F89442395
:1044A00001F10E2E000CFF0BE30FF11DCE9EA001BB
:1044B000CF9E500D11246C857D85460F571F688552
:1044C0007985641775076CF44E855F851D861C869B
:1044D000FC013696E491AE9E400D511D11245F877C
:1044E0004E87EA88FB88088919894E855F856C8527
:1044F0007D85CE010E94901FF4013496E4912C89B1
:104500008C859D85E29F800D911D11248DCF6F922A
:104510007F928F929F92AF92BF92CF92DF92EF9253
:10452000FF920F931F93CF93DF93EC016B015A011E
:1045300039014801E881F9810284F385E02D19955C
:10454000E881F9810288F389E02D87019301A501B3
:10455000B601CE011995A501480D591D41505109CB
:10456000E881F9810288F389E02D9301B601CE013B
:104570001995E881F9810088F189E02D9401A50160
:10458000B601CE011995C60CD71CB6016150710950
:10459000E881F9810088F189E02D9401A501CE011F
:1045A0001995E881F9810688F789E02DCE01DF9120
:1045B000CF911F910F91FF90EF90DF90CF90BF9020
:1045C000AF909F908F907F906F9019946F927F9291
:1045D0008F929F92AF92BF92CF92DF92EF92FF9213
:1045E0000F931F93CF93DF935C01EB016A014901A5
:1045F00038018701DC01ED91FC916217730719F511
:10460000641675062CF0962D872D3A01C92ED82EEA
:104610009601261937092F5F3F4F048CF58DE02D49
:10462000A301BE01C5011995DF91CF911F910F9193
:10463000FF90EF90DF90CF90BF90AF909F908F90C2
:104640007F906F9008954615570591F42617370708
:1046500024F0892D4B01C22FD82F9E01281939092A
:104660002F5F3F4F068CF78DE02DA601B401DACF06
:104670000284F385E02D1995D501ED91FC91048814
:10468000F589E02D83019401A601BE01C5011995AC
:10469000D501ED91FC910688F789E02DC501DF91E8
:1046A000CF911F910F91FF90EF90DF90CF90BF902F
:1046B000AF909F908F907F906F901994EF92FF92A0
:1046C0000F931F93DC011A960D911C911B9718965E
:1046D0002D913C911997ED91FC9100A0F1A1E02D55
:1046E0007B0150E040E070E060E019951F910F9170
:1046F000FF90EF9008954F925F926F927F928F920A
:104700009F92AF92BF92CF92DF92EF92FF920F9360
:104710001F93CF93DF936C012B015A01390148019C
:10472000DC01ED91FC910284F385E02D1995E20105
:10473000640C751CD601ED91FC91C615D7055CF48F
:104740000088F189E02D87019401A501BE01C60111
:1047500019952196EFCF0688F789E02DC601DF91E4
:10476000CF911F910F91FF90EF90DF90CF90BF906E
:10477000AF909F908F907F906F905F904F90199423
:104780008F929F92AF92BF92CF92DF92EF92FF9261
:104790000F931F93CF93DF93EC015B014A016901F3
:1047A000E881F9810284F385E02D199595012C0D9E
:1047B0003D1D21503109E881F9810488F589E02DFA
:1047C00078018401A401B501CE011995E881F98130
:1047D0000688F789E02DCE01DF91CF911F910F91CF
:1047E000FF90EF90DF90CF90BF90AF909F908F9011
:1047F00019948F929F92AF92BF92CF92DF92EF92D5
:10480000FF920F931F93CF93DF93EC015B014A015B
:1048100069017801E881F9810284F385E02D199519
:10482000C80CD91C860101501109E881F98104885E
:10483000F589E02D9501A401B501CE011995E88116
:10484000F9810688F789E02DCE01DF91CF911F9184
:104850000F91FF90EF90DF90CF90BF90AF909F901F
:104860008F901994EF92FF920F931F93DC01ED91BB
:10487000FC9100A0F1A1E02D19951F910F91FF90DF
:10488000EF9008950F931F93DC01ED91FC91068C3E
:10489000F78DE02D19951F910F9108950F931F9398
:1048A000DC01ED91FC91048CF58DE02D19951F91A3
:1048B0000F910895DC01ED91FC910084F185E02DCC
:1048C00019943F924F925F926F927F928F929F9234
:1048D000AF92BF92CF92DF92EF92FF920F931F930E
:1048E000CF93DF935C017B014A016901390187E0C5
:1048F000680E711C93E0759467949A95E1F72B010B
:10490000400E511E10E000E0312CD0E0C0E0CE019E
:1049100087709927330C892B59F4FE0183E0F595B4
:10492000E7958A95E1F7E00FF11FE80DF91D349046
:1049300037FE0AC021E030E0A701B5016C0F7D1FF2
:104940008FEF98E00E945A242196CC16DD06F9F6E6
:104950008FEFE81AF80A060D171DE414F504A9F6FE
:10496000DF91CF911F910F91FF90EF90DF90CF904B
:10497000BF90AF909F908F907F906F905F904F907F
:104980003F9008952F923F924F925F926F927F9245
:104990008F929F92AF92BF92CF92DF92EF92FF924F
:1049A0000F931F93CF93DF9300D000D0CDB7DEB726
:1049B0003C016A013E832D83FC82EB825801A41ADC
:1049C000B50AB7FE03C0B194A194B1088D809E8052
:1049D000861A970A97FE03C09194819491088A14CD
:1049E0009B045CF0902F812F0D811E819D838E830F
:1049F0009C2D8D2D6B01692F782F0C151D055CF0FA
:104A00009D818E817E836D83692F782F902F812FDA
:104A10008601C92ED82E1601201A310A2B012D81AC
:104A20003E81421A530A57FE03C0519441945108E3
:104A3000710137FE03C03FEFE31AF30AF594E794E0
:104A40008D819E81861797075CF5A1E0B0E0BA835F
:104A5000A983C016D1064CF1D301ED91FC910484D9
:104A6000F585E02D2B813C81A8016D817E818A1422
:104A70009B041CF04D815E81B801C3011995E418B7
:104A8000F508F7FE0AC02D813E8189819A81280FA1
:104A9000391F3E832D83E20CF31C0F5F1F4FD9CFCC
:104AA0002FEF3FEF3A832983D4CF26960FB6F894A1
:104AB000DEBF0FBECDBFDF91CF911F910F91FF9051
:104AC000EF90DF90CF90BF90AF909F908F907F90AE
:104AD0006F905F904F903F902F900895CF93CFB7F6
:104AE000F89480917D07811127C0EFE1F0E1849176
:104AF000E5E6F0E19491E82FF0E0EE0FFF1FEA54B5
:104B0000F04FA591B491EC91E92321F461E085E3A4
:104B10000E94FE0861E085E30E942C098CB580614B
:104B20008CBD8CB580648CBD61E084E30E942C094F
:104B300061E083E30E942C0980917D078F5F809361
:104B40007D07CFBFCF910895EF92FF920F931F93F0
:104B5000CF93DF93EC01EC80FD806E157F050CF0A8
:104B600070C057FF04C0240F351F50E040E08E8115
:104B70009F81FA01E20FF31F8E179F071CF49C011F
:104B8000241B350B121613060CF05BC0922F842FDA
:104B90008695869586958E9DD0018F9DB00D1124AA
:104BA0006A0F7B1FAF8DB8A1A60FB71F477049F1E1
:104BB00088E0841B482F682F70E0FB01E053FC4F16
:104BC000E491281708F063C0621B71092FEF30E0F1
:104BD00002C0359527956A95E2F7E2230130110569
:104BE00039F0B0F10230110561F58C91E82702C06F
:104BF0008C91E82BEC93941720F12C813D81A20F2E
:104C0000B31FE92FE41BE83078F00230110521F5DD
:104C10008E2F9C9190959C932C813D81A20FB31F68
:104C200088508830B0F7E770EE2359F0F0E0E85391
:104C3000FC4FE49101301105F9F010F1023011053B
:104C400019F1DF91CF911F910F91FF90EF9008958F
:104C5000E0958C91E823CECF81E00115110509F490
:104C600080E081959E2F8C932C813D81A20FB31FF4
:104C700098509830C0F7D7CF8C91E82BEC93E1CFC8
:104C8000E0958C91E823FACF8C91E827F7CF01309B
:104C9000110509F4ADCFE0F20230110509F4A5CFFA
:104CA000AE0DBF1DAECF0F931F93CF93DF9377FF52
:104CB00004C0260F371F70E060E0DC011496CD9130
:104CC000DC91FB01E20FF31FCE17DF071CF49E01FE
:104CD000261B370B121613064CF5FA0157FD3796B3
:104CE000A3E0F595E795AA95E1F7EC9FD001ED9F3C
:104CF000B00DFC9FB00D11246A0F7B1FDC015F9685
:104D0000ED91FC91E60FF71F4770552781E090E089
:104D100001C0880F4A95EAF7482F0130110559F074
:104D2000A8F02E0F3F1F02301105E1F0DF91CF9167
:104D30001F910F9108952E0F3F1FE217F307B1F354
:104D40008191DF011197842B8C93F7CF80952E0FE3
:104D50003F1FE217F30751F39191DF011197982359
:104D60009C93F7CFE217F30709F38191DF011197C5
:104D700084278C93F7CF0F931F93FA01DC0156968B
:104D80004C9156974230E9F04330A1F1413061F542
:104D900014964D915C91DA01AE1BBF0BFD01E21B35
:104DA000F30B77FD0BC0DC0116964D915C916417F7
:104DB000750724F4AB01BF010E9453261F910F9188
:104DC000089514964D915C91DA01A61BB70BBD01B5
:104DD00061507109DC0116964D915C91DA01AE1BB0
:104DE000BF0BFD01E21BF30B77FDE8CFAF010E9483
:104DF000A425E4CF16964D915C91DA01A61BB70B62
:104E0000BD0161507109CDCF0F931F93FA01DC01F1
:104E100056964C9156974230A9F0433091F141306B
:104E200019F514964D915C91DA01AE1BBF0BFD0193
:104E30003197F7FD04C0AB01BF010E94A4251F916B
:104E40000F91089514964D915C91DA01A61BB70B52
:104E5000BD01DC0116964D915C91DA01AE1BBF0BD2
:104E6000FD013197621B730BF7FDE9CFDC0116964C
:104E70004D915C91E417F50714F7AF010E9453269A
:104E8000DECF16964D915C91DA01A61BB70BBD01E2
:104E9000621B730BCECFFC0177FD64C080859185CA
:104EA000681779070CF05EC057FD5CC0828593855A
:104EB000481759070CF056C086898230B1F083300C
:104EC00029F1813041F484819581841B950BAB01DC
:104ED000BC01615071092130310509F108F443C06A
:104EE0002230310509F463C0089584819581DC0185
:104EF000A61BB70BBD016150710986819781DC014A
:104F0000A41BB50BAD0141505109E5CF86819781B6
:104F1000861B970BBA01AC0141505109DCCFCA0185
:104F200057FD0796A3E095958795AA95E1F7A4818B
:104F3000B5818A9F90018B9F300D9A9F300D11246F
:104F4000620F731F078CF0A1E02DE60FF71F47706B
:104F5000552721E030E001C0220F4A95EAF7808111
:104F6000822B80830895CA0157FD079633E09595FB
:104F700087953A95E1F7A481B5818A9F90018B9F2F
:104F8000300D9A9F300D1124620F731F078CF0A112
:104F9000E02DE60FF71F4770552781E090E001C034
:104FA000880F4A95EAF7809590818923DACFCA0164
:104FB00057FD079623E0959587952A95E1F7A481FB
:104FC000B5818A9F90018B9F300D9A9F300D1124DF
:104FD000620F731F078CF0A1E02DE60FF71F4770DB
:104FE000552721E030E001C0220F4A95EAF7808181
:104FF0008227B7CF08958CBD9DBD08950895209157
:105000003307260F3327331F21323105ECF420916B
:105010005707FC0190E080E0243069F082E00895B9
:10502000A09133072191AC014D5E584FA40FB52FCD
:10503000B11D2C930196861798F380913307680F62
:105040006093330780E0089581E008951092570738
:1050500081E0809359071092580761E084E10E9433
:10506000FE0861E085E10E94FE08E9EBF0E0808146
:105070008E7F808380818D7F808388E48093B800D9
:1050800085E48093BC000895CF93DF9391E09093E3
:1050900012078823B9F0C091B800D091BA0080916E
:1050A000BC008A7B8093BC0060E084E10E94FE0823
:1050B00060E085E10E94FE080E942628D093BA0095
:1050C000C093B800DF91CF910895E091930780914C
:1050D0009207E81730F4F0E0E351F94F808190E057
:1050E00008958FEF9FEF0895909193078091920715
:1050F0002FEF3FEF981748F4E92FF0E0E351F94F15
:10510000208130E09F5F90939307C90108958091BB
:10511000920790919307891B990B0895CF92DF9284
:10512000EF92FF920F931F93CF93DF937C01CB01FC
:105130008A012091DA07222389F0EB016B01C40E6A
:10514000D51ECC15DD0569F06991D701ED91FC9173
:105150000190F081E02DC7011995F3CF642F0E94D3
:10516000FF27C801DF91CF911F910F91FF90EF9022
:10517000DF90CF900895CF93DF931F92CDB7DEB726
:1051800069832091DA072223F9F02091D707203292
:1051900058F021E030E0FC013383228390E080E08E
:1051A0000F90DF91CF9108958091D807E82FF0E01C
:1051B000E353F94F998190838F5F8093D807809351
:1051C000D70781E090E0ECCF61E0CE0101960E942C
:1051D000FF27F7CFCF92DF92EF92FF920F931F93AB
:1051E000CF93DF93D091D70781E0D13208F09CC0F4
:1051F000C091D9070E945D096B017C01809157071E
:1052000081116CC082E08093570781E08093590739
:105210008FEF8093560710927B07D0937A07ADECFF
:10522000B6E0EAE5F7E080E0D8138DC010927C0785
:1052300080917C07CC0FC82BC0937C0780915807C6
:10524000813009F084C0109258070E945D096B01FB
:105250007C0180917C078093BB0080910E07909128
:105260000F07A0911007B0911107892B8A2B8B2B68
:10527000A1F00E945D0900910E0710910F07209187
:105280001007309111076C197D098E099F090617C7
:1052900017072807390708F442C08091BC0083FD36
:1052A000D8CF85EC8093BC000E945D096B017C0126
:1052B00080915707823009F44CC0809156078F3F88
:1052C00009F469C080915607803209F466C0809164
:1052D0005607803309F463C084E026C080910E072E
:1052E00090910F07A0911007B0911107892B8A2B7D
:1052F0008B2B09F483CF0E945D0900910E0710915A
:105300000F0720911007309111076C197D098E0944
:105310009F09061717072807390708F06FCF8091F4
:105320000D070E94442885E01092D8071092D707F5
:105330001092DA07DF91CF911F910F91FF90EF90BC
:10534000DF90CF9008959D9191938F5F6DCF85EE03
:10535000A9CF80910E0790910F07A0911007B091EF
:105360001107892B8A2B8B2B09F4A2CF0E945D0990
:1053700000910E0710910F0720911007309111072F
:105380006C197D098E099F09061717072807390729
:1053900008F08ECFC4CF80E0C7CF82E0C5CF83E0D6
:1053A000C3CF90E080E008958F929F92AF92BF921A
:1053B000CF92DF92EF92FF92C090A907D090AA07F8
:1053C000E090AB07F090AC07609106027091070285
:1053D0008091080290910902A70196010E947962CA
:1053E00049018091B3079091B407092E000CAA0BD4
:1053F000BB0B9C01AD012C0D3D1D4E1D5F1DD4014D
:105400000E94D066FF90EF90DF90CF90BF90AF905A
:105410009F908F9008952F923F924F925F926F923C
:105420007F928F929F92AF92BF92CF92DF92EF9234
:10543000FF920F931F93CF93DF9300D000D000D043
:105440001F92CDB7DEB74B015C010E94D4296B01DE
:105450007C01B501A401CE0101960E94591ECE0126
:1054600001960E944F1E4901742E652E562E472E1E
:10547000382E292EB701A601CE0101960E94591E91
:10548000CE0101960E944F1E59016A017B018C01D9
:105490004FEF5FEFBA01CE0101960E94591ECE0177
:1054A00001960E944F1E0E9436145401C72CD62C20
:1054B000E52CF42C032D122D0E946A1100E00E94AD
:1054C000E10B2A960FB6F894DEBF0FBECDBFDF9179
:1054D000CF911F910F91FF90EF90DF90CF90BF90F1
:1054E000AF909F908F907F906F905F904F903F9084
:1054F0002F900895CF93DF93C3E2D0E0CE010197C0
:10550000F1F760E086E00E94FE08CE010197F1F716
:1055100061E086E00E94FE08CE010197F1F760E0AD
:1055200086E00E94FE082197F1F7DF91CF91089560
:105530008EBD00000DB407FEFDCF8EB50895FF921D
:105540000F931F93CF93DF93F82ED92FC62F8091FF
:105550001C0990911D09009709F452C0209120095F
:1055600031E03093DA072093D9071092D8071092D0
:10557000D707DC01ED91FC910190F081E02D60E016
:1055800019950F2D1D2FD1E0FF24F394C150809168
:105590001C0990911D09CF3F61F1D032C8F00E94E3
:1055A000EA2880911C0990911D0920912009F09210
:1055B000DA072093D9071092D8071092D707DC0199
:1055C000ED91FC910190F081E02D60E01995D1E022
:1055D00080911C0990911D09F8016491DC01ED9105
:1055E000FC910190F081E02D1995DF5F0F5F1F4F57
:1055F000CDCFDF91CF911F910F91FF900C94EA28AE
:10560000E0912C09F0912D099081809132098095CB
:10561000892380830F2D1D2FC15008F438C0F80155
:10562000849120911A0930911B09232B29F00E94A3
:10563000982A0F5F1F4FF0CF28E030E040E8E0915C
:105640002809F091290990913009582F5423D9F055
:105650005081952B9083E0912A09F0912B0990813C
:1056600050913109952B9083E0912A09F0912B09F3
:1056700050819091310990959523908346952150C2
:105680003109E9F6D6CF508190959523E3CFDF918C
:10569000CF911F910F91FF9008950F931F93CF9378
:1056A000DF93EC018C01060F171F89910E94982A45
:1056B000C017D107D1F7DF91CF911F910F910895B6
:1056C0008F929F92AF92BF92CF92DF92EF92FF9212
:1056D0001F93CF93DF93182FD62F69017A0161E0D2
:1056E0008DE00E942C0961E08BE00E942C0960E0B3
:1056F0008CE00E942C0961E08AE00E942C0961E0A4
:1057000086E00E942C0961E089E00E942C0961E09A
:1057100089E30E942C0961E084E00E942C0961E089
:1057200083E00E942C0961E082E00E942C0961E084
:1057300088E20E942C0961E086E20E942C0961E067
:1057400087E20E942C0961E089E20E942C0961E055
:1057500088E00E942C0961E085E00E942C0961E04C
:1057600087E00E942C0960E08AE20E942C0960E038
:105770008EE20E942C0960E08FE20E942C0960E01A
:105780008DE20E942C0960E08CE20E942C0960E00E
:1057900086E00E94FE0860E089E30E94FE0860E067
:1057A0008AE00E94FE0860E088E20E94FE0860E055
:1057B00084E00E94FE0860E083E00E94FE0860E052
:1057C00082E00E94FE0860E088E00E94FE0860E03F
:1057D00087E00E94FE0860E085E00E94FE0861E02C
:1057E00089E30E94FE0883E290E00197F1F760E010
:1057F00089E30E94FE0860E086E00E94FE0861E006
:105800008AE00E94FE0861E088E20E94FE0860E0F3
:1058100084E00E94FE0860E083E00E94FE0860E0F1
:1058200082E00E94FE080E946E258CB5837F8CBDAD
:105830008CB58C7F81608CBD8DB581608DBD8CB544
:105840008F7D8CBD60E08AE00E94FE081092C40645
:105850001092C5061092C6061092C706C2E0C09309
:10586000C80665E070E084EC96E00E944D2B61E094
:105870008AE00E94FE080E947A2A60E08AE00E9484
:10588000FE0881E08093C4068093C5061092C60688
:105890001092C70680E28093C80665E070E084EC51
:1058A00096E00E944D2B61E08AE00E94FE080E9473
:1058B0007A2A60E08AE0113009F44AC00E94FE08AA
:1058C000C093C4061092C5061092C60680E4D1119A
:1058D00001C080EC8093C7061092C80665E070E0B6
:1058E00084EC96E00E944D2B61E08AE00E94FE0865
:1058F0000E947A2A60E08AE00E94FE0883E080939A
:10590000C4061092C5061092C6061092C706809172
:10591000AD079091AE07892B09F063C08FE78093A4
:10592000C80665E070E084EC96E00E944D2B61E0D3
:105930008AE00E94FE08DF91CF911F91FF90EF90C7
:10594000DF90CF90BF90AF909F908F900C947A2A69
:105950000E94FE08C093C40660910602709107027F
:10596000809108029091090261302AEC72072AE9BD
:1059700082072BE3920770F523E02093C50628E306
:105980002093C60621E42093C7060E9444614B0180
:105990005C01C701B6010E9444619B01AC01C501D5
:1059A000B4010E9439636B017C0120E030E0A90161
:1059B0000E94AC6420E030E040E05FE387FD0CC073
:1059C000C701B6010E94B6620E94E763660F60934A
:1059D000C80684CF25E0D1CFC701B6010E94B562C9
:1059E000F3CF8FEF9CCF1F93CF93DF93EC018D8D7F
:1059F0009E8D009721F1162F29A131E03093DA070F
:105A00002093D9071092D8071092D707DC01ED91A7
:105A1000FC910190F081E02D60E019958D8D9E8DB7
:105A2000DC01ED91FC910190F081E02D612F199541
:105A30008D8D9E8DDF91CF911F910C94EA28ADA59D
:105A4000BEA59C918BA9809589238C938B8D9C8D71
:105A5000892B31F0862FDF91CF911F910C94982ADA
:105A600028E030E080E8A9A5BAA599A9462F4823E7
:105A7000C1F04C91942B9C93ABA5BCA59C914AA9D9
:105A8000942B9C93ABA5BCA54C919AA9909594237B
:105A90009C9386952150310931F7DF91CF911F9169
:105AA00008954C9190959423E6CFEF92FF920F9337
:105AB0001F93CF93DF9380911C0990911D09892B2F
:105AC00009F493C020913609309137094091380983
:105AD0005091390960E074E284EF90E00E947962AD
